{
  "address": "0xE31F997aC679413688A32A0205E6c0157B1b625f",
  "abi": [
    {
      "anonymous": false,
      "inputs": [
        {
          "indexed": true,
          "internalType": "address",
          "name": "previousOwner",
          "type": "address"
        },
        {
          "indexed": true,
          "internalType": "address",
          "name": "newOwner",
          "type": "address"
        }
      ],
      "name": "OwnershipTransferred",
      "type": "event"
    },
    {
      "anonymous": false,
      "inputs": [
        {
          "indexed": true,
          "internalType": "address",
          "name": "contractAddress",
          "type": "address"
        },
        {
          "indexed": true,
          "internalType": "address",
          "name": "creator",
          "type": "address"
        },
        {
          "indexed": false,
          "internalType": "uint256",
          "name": "projectId",
          "type": "uint256"
        },
        {
          "indexed": false,
          "internalType": "string",
          "name": "projectTitle",
          "type": "string"
        },
        {
          "indexed": false,
          "internalType": "uint256",
          "name": "deadline",
          "type": "uint256"
        },
        {
          "indexed": false,
          "internalType": "uint256",
          "name": "goalAmount",
          "type": "uint256"
        }
      ],
      "name": "ProjectCreated",
      "type": "event"
    },
    {
      "inputs": [
        {
          "internalType": "address",
          "name": "token",
          "type": "address"
        },
        {
          "internalType": "uint256",
          "name": "toIssue",
          "type": "uint256"
        },
        {
          "internalType": "uint256",
          "name": "goalAmount",
          "type": "uint256"
        },
        {
          "internalType": "string",
          "name": "title",
          "type": "string"
        },
        {
          "internalType": "string",
          "name": "description",
          "type": "string"
        },
        {
          "internalType": "uint256",
          "name": "durationInDays",
          "type": "uint256"
        }
      ],
      "name": "createProject",
      "outputs": [],
      "stateMutability": "nonpayable",
      "type": "function"
    },
    {
      "inputs": [],
      "name": "getActiveProjects",
      "outputs": [
        {
          "internalType": "contract Project[]",
          "name": "",
          "type": "address[]"
        }
      ],
      "stateMutability": "view",
      "type": "function"
    },
    {
      "inputs": [],
      "name": "owner",
      "outputs": [
        {
          "internalType": "address",
          "name": "",
          "type": "address"
        }
      ],
      "stateMutability": "view",
      "type": "function"
    },
    {
      "inputs": [],
      "name": "renounceOwnership",
      "outputs": [],
      "stateMutability": "nonpayable",
      "type": "function"
    },
    {
      "inputs": [
        {
          "internalType": "address",
          "name": "newOwner",
          "type": "address"
        }
      ],
      "name": "transferOwnership",
      "outputs": [],
      "stateMutability": "nonpayable",
      "type": "function"
    }
  ],
  "transactionHash": "0x6018e5f2273e783346b78afbb14d174fc738f9a6f16498b80029f50ab0f029be",
  "args": [],
  "numDeployments": 1,
  "solcInputHash": "bc1f53d7ce9e496e92c43f99c69fc366",
  "bytecode": "0x6080604052600060025534801561001557600080fd5b5061001f33610024565b610074565b600080546001600160a01b038381166001600160a01b0319831681178455604051919092169283917f8be0079c531659141344cd1fd0a4f28419497f9722a3daafe3b4186f6b6457e09190a35050565b611795806100836000396000f3fe60806040523480156200001157600080fd5b50600436106200006f5760003560e01c80638da5cb5b11620000565780638da5cb5b14620000a2578063b0655a2c14620000be578063f2fde38b14620000d557600080fd5b806329cfce411462000074578063715018a61462000096575b600080fd5b6200007e620000ec565b6040516200008d919062000421565b60405180910390f35b620000a062000150565b005b6000546040516001600160a01b0390911681526020016200008d565b620000a0620000cf36600462000538565b62000168565b620000a0620000e6366004620005d1565b620002c0565b606060018054806020026020016040519081016040528092919081815260200182805480156200014657602002820191906000526020600020905b81546001600160a01b0316815260019091019060200180831162000127575b5050505050905090565b6200015a6200035a565b620001666000620003b6565b565b620001726200035a565b6000620001818260186200060c565b6200018f90610e106200060c565b6200019b90426200062c565b90506000338860025489888887604051620001b69062000413565b620001c897969594939291906200068a565b604051809103906000f080158015620001e5573d6000803e3d6000fd5b5060018054808201825560008281527fb10e2d527612073b26eecdfd717e6a320cf44b4afac2b0732d9fcbe2b7fa0cf6909101805473ffffffffffffffffffffffffffffffffffffffff19166001600160a01b038516179055600280549394509192620002549084906200062c565b909155505060025433906001600160a01b038316907ffb6a4b4a9a941613181b9b90b80c89559f5b6128ecbe7eaf24dba64198de7940906200029990600190620006ed565b88868b604051620002ae949392919062000703565b60405180910390a35050505050505050565b620002ca6200035a565b6001600160a01b0381166200034c5760405162461bcd60e51b815260206004820152602660248201527f4f776e61626c653a206e6577206f776e657220697320746865207a65726f206160448201527f646472657373000000000000000000000000000000000000000000000000000060648201526084015b60405180910390fd5b6200035781620003b6565b50565b6000546001600160a01b03163314620001665760405162461bcd60e51b815260206004820181905260248201527f4f776e61626c653a2063616c6c6572206973206e6f7420746865206f776e6572604482015260640162000343565b600080546001600160a01b0383811673ffffffffffffffffffffffffffffffffffffffff19831681178455604051919092169283917f8be0079c531659141344cd1fd0a4f28419497f9722a3daafe3b4186f6b6457e09190a35050565b61102e806200073283390190565b6020808252825182820181905260009190848201906040850190845b81811015620004645783516001600160a01b0316835292840192918401916001016200043d565b50909695505050505050565b80356001600160a01b03811681146200048857600080fd5b919050565b634e487b7160e01b600052604160045260246000fd5b600082601f830112620004b557600080fd5b813567ffffffffffffffff80821115620004d357620004d36200048d565b604051601f8301601f19908116603f01168101908282118183101715620004fe57620004fe6200048d565b816040528381528660208588010111156200051857600080fd5b836020870160208301376000602085830101528094505050505092915050565b60008060008060008060c087890312156200055257600080fd5b6200055d8762000470565b95506020870135945060408701359350606087013567ffffffffffffffff808211156200058957600080fd5b620005978a838b01620004a3565b94506080890135915080821115620005ae57600080fd5b50620005bd89828a01620004a3565b92505060a087013590509295509295509295565b600060208284031215620005e457600080fd5b620005ef8262000470565b9392505050565b634e487b7160e01b600052601160045260246000fd5b8082028115828204841417620006265762000626620005f6565b92915050565b80820180821115620006265762000626620005f6565b6000815180845260005b818110156200066a576020818501810151868301820152016200064c565b506000602082860101526020601f19601f83011685010191505092915050565b60006001600160a01b03808a16835280891660208401525086604083015285606083015260e06080830152620006c460e083018662000642565b82810360a0840152620006d8818662000642565b9150508260c083015298975050505050505050565b81810381811115620006265762000626620005f6565b8481526080602082015260006200071e608083018662000642565b604083019490945250606001529291505056fe6101006040526007805460ff191660031790553480156200001f57600080fd5b506040516200102e3803806200102e833981016040819052620000429162000257565b6001600160a01b03808816608052861660a05260e0849052600062000068848262000394565b5060c085905260016200007c838262000394565b506200008a81601862000476565b6200009890610e1062000476565b620000a4904262000490565b6004556007805460ff1916905560016002819055620000c6906103e862000476565b6003819055506000600581905550620000ee60035460026200013360201b620008ab1760201c565b60065560405130815285907f3c831dcf6fd0b80fe93c3ee5d9557ada5a592ba10c1dbe75b71be141107d60a59060200160405180910390a250505050505050620004df565b600082156200016957816200014a600185620004a6565b620001569190620004bc565b6200016390600162000490565b6200016c565b60005b90505b92915050565b80516001600160a01b03811681146200018d57600080fd5b919050565b634e487b7160e01b600052604160045260246000fd5b600082601f830112620001ba57600080fd5b81516001600160401b0380821115620001d757620001d762000192565b604051601f8301601f19908116603f0116810190828211818310171562000202576200020262000192565b816040528381526020925086838588010111156200021f57600080fd5b600091505b8382101562000243578582018301518183018401529082019062000224565b600093810190920192909252949350505050565b600080600080600080600060e0888a0312156200027357600080fd5b6200027e8862000175565b96506200028e6020890162000175565b604089015160608a015160808b015192985090965094506001600160401b0380821115620002bb57600080fd5b620002c98b838c01620001a8565b945060a08a0151915080821115620002e057600080fd5b50620002ef8a828b01620001a8565b92505060c0880151905092959891949750929550565b600181811c908216806200031a57607f821691505b6020821081036200033b57634e487b7160e01b600052602260045260246000fd5b50919050565b601f8211156200038f57600081815260208120601f850160051c810160208610156200036a5750805b601f850160051c820191505b818110156200038b5782815560010162000376565b5050505b505050565b81516001600160401b03811115620003b057620003b062000192565b620003c881620003c1845462000305565b8462000341565b602080601f831160018114620004005760008415620003e75750858301515b600019600386901b1c1916600185901b1785556200038b565b600085815260208120601f198616915b82811015620004315788860151825594840194600190910190840162000410565b5085821015620004505787850151600019600388901b60f8161c191681555b5050505050600190811b01905550565b634e487b7160e01b600052601160045260246000fd5b80820281158282048414176200016f576200016f62000460565b808201808211156200016f576200016f62000460565b818103818111156200016f576200016f62000460565b600082620004da57634e487b7160e01b600052601260045260246000fd5b500490565b60805160a05160c05160e051610b006200052e60003960006101b60152600081816104ef015261085901526000818161024b01526104cc0152600081816105a7015261071c0152610b006000f3fe6080604052600436106100705760003560e01c8063bd96fae71161004e578063bd96fae7146100d8578063d7bb99ba146100ef578063daf12f75146100f7578063fbbf93a01461010c57600080fd5b80631865c57d1461007557806348c54b9d1461009e578063b2d5ae44146100c3575b600080fd5b34801561008157600080fd5b5060075460ff16604051610095919061091d565b60405180910390f35b3480156100aa57600080fd5b506100b3610136565b6040519015158152602001610095565b3480156100cf57600080fd5b506100b36102f7565b3480156100e457600080fd5b506100ed610494565b005b6100ed610558565b34801561010357600080fd5b506100ed6106d4565b34801561011857600080fd5b5061012161070c565b60405161009599989796959493929190610971565b600060018060075460ff166003811115610152576101526108e5565b146101705760405163f383ec1960e01b815260040160405180910390fd5b33600090815260086020526040812054900361019f57604051632a022d0f60e11b815260040160405180910390fd5b6003543360009081526008602052604081205490917f0000000000000000000000000000000000000000000000000000000000000000916101e09190610a08565b6101ea9190610a2a565b3360008181526008602052604080822091909155517fa9059cbb00000000000000000000000000000000000000000000000000000000815260048101919091526024810182905290915073ffffffffffffffffffffffffffffffffffffffff7f0000000000000000000000000000000000000000000000000000000000000000169063a9059cbb906044016020604051808303816000875af1158015610294573d6000803e3d6000fd5b505050506040513d601f19601f820116820180604052508101906102b89190610a41565b5060405181815233907f4d7f917f6b905f28ba5297e6c224a6cfec20ac6a3698a55b412d30b95ad25d2f9060200160405180910390a260019250505090565b600060028060075460ff166003811115610313576103136108e5565b146103315760405163f383ec1960e01b815260040160405180910390fd5b60045442101561036d576040517f9af5028d00000000000000000000000000000000000000000000000000000000815260040160405180910390fd5b33600090815260086020526040812054900361039c57604051632a022d0f60e11b815260040160405180910390fd5b3360008181526008602052604080822054905190929083908381818185875af1925050503d80600081146103ec576040519150601f19603f3d011682016040523d82523d6000602084013e6103f1565b606091505b505090508061042c576040517ff68aaf4100000000000000000000000000000000000000000000000000000000815260040160405180910390fd5b33600090815260086020526040812081905560058054849290610450908490610a6a565b909155505060405182815233907f7ab855409e27a3b361adc9ebbc0750f5efb6d4594be28fef73c314d86d13a7f79060200160405180910390a26001935050505090565b6003546005541061053e576007805460ff1916600117905560025460405190815273ffffffffffffffffffffffffffffffffffffffff7f000000000000000000000000000000000000000000000000000000000000000016907f0000000000000000000000000000000000000000000000000000000000000000907fa39ae0d7691252825674f6236b141740ed91074f3d797e104266d0b51ff18a689060200160405180910390a3565b600454421115610556576007805460ff191660021790555b565b60008060075460ff166003811115610572576105726108e5565b146105905760405163f383ec1960e01b815260040160405180910390fd5b73ffffffffffffffffffffffffffffffffffffffff7f00000000000000000000000000000000000000000000000000000000000000001633036105ff576040517fd39b9cf600000000000000000000000000000000000000000000000000000000815260040160405180910390fd5b6006543360009081526008602052604090205461061d903490610a7d565b1115610655576040517f77c5c94100000000000000000000000000000000000000000000000000000000815260040160405180910390fd5b3360009081526008602052604081208054349290610674908490610a7d565b92505081905550346005600082825461068d9190610a7d565b9091555050604051348152309033907f37be9bdbd3d0fa9f42e06daf81145e35769daee2a65754d3986d0daf9899a7d69060200160405180910390a36106d1610494565b50565b60038060075460ff1660038111156106ee576106ee6108e5565b146106d15760405163f383ec1960e01b815260040160405180910390fd5b60006060806000806000806000807f000000000000000000000000000000000000000000000000000000000000000098506000805461074a90610a90565b80601f016020809104026020016040519081016040528092919081815260200182805461077690610a90565b80156107c35780601f10610798576101008083540402835291602001916107c3565b820191906000526020600020905b8154815290600101906020018083116107a657829003601f168201915b50505050509750600180546107d790610a90565b80601f016020809104026020016040519081016040528092919081815260200182805461080390610a90565b80156108505780601f1061082557610100808354040283529160200191610850565b820191906000526020600020905b81548152906001019060200180831161083357829003601f168201915b505050505096507f000000000000000000000000000000000000000000000000000000000000000095506003549450600454935060055492506002549150600760009054906101000a900460ff169050909192939495969798565b600082156108d957816108bf600185610a6a565b6108c99190610a08565b6108d4906001610a7d565b6108dc565b60005b90505b92915050565b634e487b7160e01b600052602160045260246000fd5b6004811061091957634e487b7160e01b600052602160045260246000fd5b9052565b602081016108df82846108fb565b6000815180845260005b8181101561095157602081850181015186830182015201610935565b506000602082860101526020601f19601f83011685010191505092915050565b600061012073ffffffffffffffffffffffffffffffffffffffff8c1683528060208401526109a18184018c61092b565b905082810360408401526109b5818b61092b565b9150508760608301528660808301528560a08301528460c08301528360e08301526109e46101008301846108fb565b9a9950505050505050505050565b634e487b7160e01b600052601160045260246000fd5b600082610a2557634e487b7160e01b600052601260045260246000fd5b500490565b80820281158282048414176108df576108df6109f2565b600060208284031215610a5357600080fd5b81518015158114610a6357600080fd5b9392505050565b818103818111156108df576108df6109f2565b808201808211156108df576108df6109f2565b600181811c90821680610aa457607f821691505b602082108103610ac457634e487b7160e01b600052602260045260246000fd5b5091905056fea2646970667358221220cff63daac5cdd8e213c03e0151d63515da8dced01b50a108de4b8f08b877478f64736f6c63430008110033a264697066735822122030157eecdee48294cf0345e669204fa5ced6d913a220f3da99dd4d5b1786e06664736f6c63430008110033",
  "devdoc": {
    "kind": "dev",
    "methods": {
      "createProject(address,uint256,uint256,string,string,uint256)": {
        "details": "This is called by the CrowdFundingDAO, once the voters have agreed to add this project into active list"
      },
      "owner()": {
        "details": "Returns the address of the current owner."
      },
      "renounceOwnership()": {
        "details": "Leaves the contract without owner. It will not be possible to call `onlyOwner` functions anymore. Can only be called by the current owner. NOTE: Renouncing ownership will leave the contract without an owner, thereby removing any functionality that is only available to the owner."
      },
      "transferOwnership(address)": {
        "details": "Transfers ownership of the contract to a new account (`newOwner`). Can only be called by the current owner."
      }
    },
    "version": 1
  },
  "userdoc": {
    "kind": "user",
    "methods": {},
    "notice": "Propose a project (name, website, logo, prject description, prospects, fund amount, formula: numOfTokens to issue in exchange for 1ETH, dao details) Fund a project (projectId, amount) - become a member of the project's DAO if enough num of tokens Funding complete - DAO created, members added",
    "version": 1
  },
  "storageLayout": {
    "storage": [
      {
        "astId": 400,
        "contract": "contracts/CrowdFunding.sol:CrowdFunding",
        "label": "_owner",
        "offset": 0,
        "slot": "0",
        "type": "t_address"
      },
      {
        "astId": 10136,
        "contract": "contracts/CrowdFunding.sol:CrowdFunding",
        "label": "s_projects",
        "offset": 0,
        "slot": "1",
        "type": "t_array(t_contract(Project)11144)dyn_storage"
      },
      {
        "astId": 10139,
        "contract": "contracts/CrowdFunding.sol:CrowdFunding",
        "label": "currentProjId",
        "offset": 0,
        "slot": "2",
        "type": "t_uint256"
      }
    ],
    "types": {
      "t_address": {
        "encoding": "inplace",
        "label": "address",
        "numberOfBytes": "20"
      },
      "t_array(t_contract(Project)11144)dyn_storage": {
        "base": "t_contract(Project)11144",
        "encoding": "dynamic_array",
        "label": "contract Project[]",
        "numberOfBytes": "32"
      },
      "t_contract(Project)11144": {
        "encoding": "inplace",
        "label": "contract Project",
        "numberOfBytes": "20"
      },
      "t_uint256": {
        "encoding": "inplace",
        "label": "uint256",
        "numberOfBytes": "32"
      }
    }
  }
}