{
  "address": "0x4f940CA220381aab3aEb52ab3aF8b14e6eaC5CE1",
  "abi": [
    {
      "anonymous": false,
      "inputs": [
        {
          "indexed": true,
          "internalType": "address",
          "name": "previousOwner",
          "type": "address"
        },
        {
          "indexed": true,
          "internalType": "address",
          "name": "newOwner",
          "type": "address"
        }
      ],
      "name": "OwnershipTransferred",
      "type": "event"
    },
    {
      "anonymous": false,
      "inputs": [
        {
          "indexed": true,
          "internalType": "address",
          "name": "contractAddress",
          "type": "address"
        },
        {
          "indexed": true,
          "internalType": "address",
          "name": "creator",
          "type": "address"
        },
        {
          "indexed": false,
          "internalType": "uint256",
          "name": "projectId",
          "type": "uint256"
        },
        {
          "indexed": false,
          "internalType": "string",
          "name": "projectTitle",
          "type": "string"
        },
        {
          "indexed": false,
          "internalType": "uint256",
          "name": "deadline",
          "type": "uint256"
        },
        {
          "indexed": false,
          "internalType": "uint256",
          "name": "goalAmount",
          "type": "uint256"
        }
      ],
      "name": "ProjectCreated",
      "type": "event"
    },
    {
      "inputs": [
        {
          "internalType": "address",
          "name": "token",
          "type": "address"
        },
        {
          "internalType": "uint256",
          "name": "toIssue",
          "type": "uint256"
        },
        {
          "internalType": "uint256",
          "name": "goalAmount",
          "type": "uint256"
        },
        {
          "internalType": "string",
          "name": "title",
          "type": "string"
        },
        {
          "internalType": "string",
          "name": "description",
          "type": "string"
        },
        {
          "internalType": "uint256",
          "name": "durationInDays",
          "type": "uint256"
        }
      ],
      "name": "createProject",
      "outputs": [],
      "stateMutability": "nonpayable",
      "type": "function"
    },
    {
      "inputs": [],
      "name": "getActiveProjects",
      "outputs": [
        {
          "internalType": "contract Project[]",
          "name": "",
          "type": "address[]"
        }
      ],
      "stateMutability": "view",
      "type": "function"
    },
    {
      "inputs": [],
      "name": "owner",
      "outputs": [
        {
          "internalType": "address",
          "name": "",
          "type": "address"
        }
      ],
      "stateMutability": "view",
      "type": "function"
    },
    {
      "inputs": [],
      "name": "renounceOwnership",
      "outputs": [],
      "stateMutability": "nonpayable",
      "type": "function"
    },
    {
      "inputs": [
        {
          "internalType": "address",
          "name": "newOwner",
          "type": "address"
        }
      ],
      "name": "transferOwnership",
      "outputs": [],
      "stateMutability": "nonpayable",
      "type": "function"
    }
  ],
  "transactionHash": "0xc662cf02c296cce1f150f335ae78e5d57cf4946c350b7645d72f6c74a7f467ab",
  "args": [],
  "numDeployments": 4,
  "solcInputHash": "970fe464e7d21bcc0cca8b8160889093",
  "bytecode": "0x6080604052600060025534801561001557600080fd5b5061001f33610024565b610074565b600080546001600160a01b038381166001600160a01b0319831681178455604051919092169283917f8be0079c531659141344cd1fd0a4f28419497f9722a3daafe3b4186f6b6457e09190a35050565b611cec806100836000396000f3fe60806040523480156200001157600080fd5b50600436106200006f5760003560e01c80638da5cb5b11620000565780638da5cb5b14620000a2578063b0655a2c14620000be578063f2fde38b14620000d557600080fd5b806329cfce411462000074578063715018a61462000096575b600080fd5b6200007e620000ec565b6040516200008d919062000423565b60405180910390f35b620000a062000150565b005b6000546040516001600160a01b0390911681526020016200008d565b620000a0620000cf3660046200053a565b62000168565b620000a0620000e6366004620005d3565b620002c2565b606060018054806020026020016040519081016040528092919081815260200182805480156200014657602002820191906000526020600020905b81546001600160a01b0316815260019091019060200180831162000127575b5050505050905090565b6200015a6200035c565b620001666000620003b8565b565b620001726200035c565b6000620001818260186200060e565b6200018f90610e106200060e565b6200019b90426200062e565b905060003388600254898888878c604051620001b79062000415565b620001ca9897969594939291906200068c565b604051809103906000f080158015620001e7573d6000803e3d6000fd5b5060018054808201825560008281527fb10e2d527612073b26eecdfd717e6a320cf44b4afac2b0732d9fcbe2b7fa0cf6909101805473ffffffffffffffffffffffffffffffffffffffff19166001600160a01b038516179055600280549394509192620002569084906200062e565b909155505060025433906001600160a01b038316907ffb6a4b4a9a941613181b9b90b80c89559f5b6128ecbe7eaf24dba64198de7940906200029b90600190620006f5565b88868b604051620002b094939291906200070b565b60405180910390a35050505050505050565b620002cc6200035c565b6001600160a01b0381166200034e5760405162461bcd60e51b815260206004820152602660248201527f4f776e61626c653a206e6577206f776e657220697320746865207a65726f206160448201527f646472657373000000000000000000000000000000000000000000000000000060648201526084015b60405180910390fd5b6200035981620003b8565b50565b6000546001600160a01b03163314620001665760405162461bcd60e51b815260206004820181905260248201527f4f776e61626c653a2063616c6c6572206973206e6f7420746865206f776e6572604482015260640162000345565b600080546001600160a01b0383811673ffffffffffffffffffffffffffffffffffffffff19831681178455604051919092169283917f8be0079c531659141344cd1fd0a4f28419497f9722a3daafe3b4186f6b6457e09190a35050565b61157d806200073a83390190565b6020808252825182820181905260009190848201906040850190845b81811015620004665783516001600160a01b0316835292840192918401916001016200043f565b50909695505050505050565b80356001600160a01b03811681146200048a57600080fd5b919050565b634e487b7160e01b600052604160045260246000fd5b600082601f830112620004b757600080fd5b813567ffffffffffffffff80821115620004d557620004d56200048f565b604051601f8301601f19908116603f011681019082821181831017156200050057620005006200048f565b816040528381528660208588010111156200051a57600080fd5b836020870160208301376000602085830101528094505050505092915050565b60008060008060008060c087890312156200055457600080fd5b6200055f8762000472565b95506020870135945060408701359350606087013567ffffffffffffffff808211156200058b57600080fd5b620005998a838b01620004a5565b94506080890135915080821115620005b057600080fd5b50620005bf89828a01620004a5565b92505060a087013590509295509295509295565b600060208284031215620005e657600080fd5b620005f18262000472565b9392505050565b634e487b7160e01b600052601160045260246000fd5b8082028115828204841417620006285762000628620005f8565b92915050565b80820180821115620006285762000628620005f8565b6000815180845260005b818110156200066c576020818501810151868301820152016200064e565b506000602082860101526020601f19601f83011685010191505092915050565b60006101006001600160a01b03808c168452808b16602085015250886040840152876060840152806080840152620006c78184018862000644565b905082810360a0840152620006dd818762000644565b60c0840195909552505060e001529695505050505050565b81810381811115620006285762000628620005f8565b84815260806020820152600062000726608083018662000644565b604083019490945250606001529291505056fe60e06040526005805460ff191660031790553480156200001e57600080fd5b506040516200157d3803806200157d8339810160408190526200004191620002df565b6200004c33620001ad565b6001600160a01b03808916608052871660a05260016200006d858262000425565b5060c0869052600262000081848262000425565b506200008f82601862000507565b6200009d90610e1062000507565b620000a9904262000527565b600080805260096020527fec8156718a8372b1db44bb411437d0870f3e3790d4a08526d024ce1b0b668f6b919091556005805460ff19169055600355620000f985670de0b6b3a764000062000507565b6000805260076020527f6d5257204ebe7d88fd91ae87941cb2dd9d8062b64ae5a2bd2d28ec40b9fbf6df556200013881670de0b6b3a764000062000507565b6000808052600860209081527f5eff886ea0ce6ca488a3d6e336d6c0f75f46d19b42c06ce5ee98e42c96d256c79290925560045560405130815287917f3c831dcf6fd0b80fe93c3ee5d9557ada5a592ba10c1dbe75b71be141107d60a5910160405180910390a250505050505050506200053d565b600080546001600160a01b038381166001600160a01b0319831681178455604051919092169283917f8be0079c531659141344cd1fd0a4f28419497f9722a3daafe3b4186f6b6457e09190a35050565b80516001600160a01b03811681146200021557600080fd5b919050565b634e487b7160e01b600052604160045260246000fd5b600082601f8301126200024257600080fd5b81516001600160401b03808211156200025f576200025f6200021a565b604051601f8301601f19908116603f011681019082821181831017156200028a576200028a6200021a565b81604052838152602092508683858801011115620002a757600080fd5b600091505b83821015620002cb5785820183015181830184015290820190620002ac565b600093810190920192909252949350505050565b600080600080600080600080610100898b031215620002fd57600080fd5b6200030889620001fd565b97506200031860208a01620001fd565b60408a015160608b015160808c015192995090975095506001600160401b03808211156200034557600080fd5b620003538c838d0162000230565b955060a08b01519150808211156200036a57600080fd5b50620003798b828c0162000230565b60c08b015160e0909b0151999c989b509699959894979350505050565b600181811c90821680620003ab57607f821691505b602082108103620003cc57634e487b7160e01b600052602260045260246000fd5b50919050565b601f8211156200042057600081815260208120601f850160051c81016020861015620003fb5750805b601f850160051c820191505b818110156200041c5782815560010162000407565b5050505b505050565b81516001600160401b038111156200044157620004416200021a565b620004598162000452845462000396565b84620003d2565b602080601f831160018114620004915760008415620004785750858301515b600019600386901b1c1916600185901b1785556200041c565b600085815260208120601f198616915b82811015620004c257888601518255948401946001909101908401620004a1565b5085821015620004e15787850151600019600388901b60f8161c191681555b5050505050600190811b01905550565b634e487b7160e01b600052601160045260246000fd5b8082028115828204841417620005215762000521620004f1565b92915050565b80820180821115620005215762000521620004f1565b60805160a05160c051610fd8620005a56000396000818161035a01528181610758015281816108040152610c3501526000818161032f015281816104a80152818161073501526107e10152600081816108a30152818161097f0152610af80152610fd86000f3fe6080604052600436106100c75760003560e01c8063bd96fae711610074578063ea07551d1161004e578063ea07551d146101c0578063f2fde38b146101fb578063fbbf93a01461021b57600080fd5b8063bd96fae71461018e578063c2052403146101a3578063d7bb99ba146101b857600080fd5b8063715018a6116100a5578063715018a61461013c5780638da5cb5b14610151578063b2d5ae441461017957600080fd5b80631865c57d146100cc57806319aea115146100f557806348c54b9d14610117575b600080fd5b3480156100d857600080fd5b5060055460ff166040516100ec9190610da7565b60405180910390f35b34801561010157600080fd5b50610115610110366004610dbb565b610245565b005b34801561012357600080fd5b5061012c6103ad565b60405190151581526020016100ec565b34801561014857600080fd5b50610115610554565b34801561015d57600080fd5b506000546040516001600160a01b0390911681526020016100ec565b34801561018557600080fd5b5061012c610568565b34801561019a57600080fd5b506101156106fb565b3480156101af57600080fd5b5061012c61084e565b61011561093d565b3480156101cc57600080fd5b506101ed6101db366004610de7565b60066020526000908152604090205481565b6040519081526020016100ec565b34801561020757600080fd5b50610115610216366004610de7565b610a56565b34801561022757600080fd5b50610230610ae8565b6040516100ec99989796959493929190610e5d565b61024d610cad565b60038060055460ff16600381111561026757610267610d6f565b146102855760405163f383ec1960e01b815260040160405180910390fd5b6001600360008282546102989190610ee7565b909155506102b0905084670de0b6b3a7640000610efa565b60038054600090815260086020908152604080832094909455915481526007909152208390556102e1826018610efa565b6102ed90610e10610efa565b6102f79042610ee7565b60038054600090815260096020908152604091829020939093556005805460ff191690559054815190815291820186905281018390527f00000000000000000000000000000000000000000000000000000000000000006001600160a01b0316907f0000000000000000000000000000000000000000000000000000000000000000907f753b8d108e14f127257005d564a8287f99943fc30306134452cf4cad0bb5dcb39060600160405180910390a350505050565b600060018060055460ff1660038111156103c9576103c9610d6f565b146103e75760405163f383ec1960e01b815260040160405180910390fd5b33600090815260066020526040812054900361041657604051632a022d0f60e11b815260040160405180910390fd5b6003546000908152600760209081526040808320546008835281842054338552600690935290832054909161044a91610f11565b6104549190610efa565b3360008181526006602052604080822091909155517fa9059cbb0000000000000000000000000000000000000000000000000000000081526004810191909152602481018290529091506001600160a01b037f0000000000000000000000000000000000000000000000000000000000000000169063a9059cbb906044016020604051808303816000875af11580156104f1573d6000803e3d6000fd5b505050506040513d601f19601f820116820180604052508101906105159190610f33565b5060405181815233907f4d7f917f6b905f28ba5297e6c224a6cfec20ac6a3698a55b412d30b95ad25d2f9060200160405180910390a260019250505090565b61055c610cad565b6105666000610d07565b565b600060028060055460ff16600381111561058457610584610d6f565b146105a25760405163f383ec1960e01b815260040160405180910390fd5b6003546000908152600960205260409020544210156105ed576040517f9af5028d00000000000000000000000000000000000000000000000000000000815260040160405180910390fd5b33600090815260066020526040812054900361061c57604051632a022d0f60e11b815260040160405180910390fd5b3360008181526006602052604080822054905190929083908381818185875af1925050503d806000811461066c576040519150601f19603f3d011682016040523d82523d6000602084013e610671565b606091505b50509050806106935760405163f68aaf4160e01b815260040160405180910390fd5b336000908152600660205260408120819055600480548492906106b7908490610f55565b909155505060405182815233907f7ab855409e27a3b361adc9ebbc0750f5efb6d4594be28fef73c314d86d13a7f79060200160405180910390a26001935050505090565b600354600090815260086020526040902054600454106107a8576005805460ff191660011790556003546040519081526001600160a01b037f000000000000000000000000000000000000000000000000000000000000000016907f0000000000000000000000000000000000000000000000000000000000000000907fa39ae0d7691252825674f6236b141740ed91074f3d797e104266d0b51ff18a68906020015b60405180910390a3565b600354600090815260096020526040902054421115610566576005805460ff191660021790556003546040519081526001600160a01b037f000000000000000000000000000000000000000000000000000000000000000016907f0000000000000000000000000000000000000000000000000000000000000000907fbc000f0d278d68c57829609b564a0212ef66a6062eb8ed49f97960744f8f21479060200161079e565b6000610858610cad565b60018060055460ff16600381111561087257610872610d6f565b146108905760405163f383ec1960e01b815260040160405180910390fd5b6004546040516000916001600160a01b037f000000000000000000000000000000000000000000000000000000000000000016918381818185875af1925050503d80600081146108fc576040519150601f19603f3d011682016040523d82523d6000602084013e610901565b606091505b50509050806109235760405163f68aaf4160e01b815260040160405180910390fd5b50506000600455506005805460ff19166003179055600190565b60008060055460ff16600381111561095757610957610d6f565b146109755760405163f383ec1960e01b815260040160405180910390fd5b6001600160a01b037f00000000000000000000000000000000000000000000000000000000000000001633036109d7576040517fd39b9cf600000000000000000000000000000000000000000000000000000000815260040160405180910390fd5b33600090815260066020526040812080543492906109f6908490610ee7565b925050819055503460046000828254610a0f9190610ee7565b9091555050604051348152309033907f37be9bdbd3d0fa9f42e06daf81145e35769daee2a65754d3986d0daf9899a7d69060200160405180910390a3610a536106fb565b50565b610a5e610cad565b6001600160a01b038116610adf5760405162461bcd60e51b815260206004820152602660248201527f4f776e61626c653a206e6577206f776e657220697320746865207a65726f206160448201527f646472657373000000000000000000000000000000000000000000000000000060648201526084015b60405180910390fd5b610a5381610d07565b60006060806000806000806000807f0000000000000000000000000000000000000000000000000000000000000000985060018054610b2690610f68565b80601f0160208091040260200160405190810160405280929190818152602001828054610b5290610f68565b8015610b9f5780601f10610b7457610100808354040283529160200191610b9f565b820191906000526020600020905b815481529060010190602001808311610b8257829003601f168201915b5050505050975060028054610bb390610f68565b80601f0160208091040260200160405190810160405280929190818152602001828054610bdf90610f68565b8015610c2c5780601f10610c0157610100808354040283529160200191610c2c565b820191906000526020600020905b815481529060010190602001808311610c0f57829003601f168201915b505050505096507f0000000000000000000000000000000000000000000000000000000000000000955060086000600354815260200190815260200160002054945060096000600354815260200190815260200160002054935060045492506003549150600560009054906101000a900460ff169050909192939495969798565b6000546001600160a01b031633146105665760405162461bcd60e51b815260206004820181905260248201527f4f776e61626c653a2063616c6c6572206973206e6f7420746865206f776e65726044820152606401610ad6565b600080546001600160a01b038381167fffffffffffffffffffffffff0000000000000000000000000000000000000000831681178455604051919092169283917f8be0079c531659141344cd1fd0a4f28419497f9722a3daafe3b4186f6b6457e09190a35050565b634e487b7160e01b600052602160045260246000fd5b60048110610da357634e487b7160e01b600052602160045260246000fd5b9052565b60208101610db58284610d85565b92915050565b600080600060608486031215610dd057600080fd5b505081359360208301359350604090920135919050565b600060208284031215610df957600080fd5b81356001600160a01b0381168114610e1057600080fd5b9392505050565b6000815180845260005b81811015610e3d57602081850181015186830182015201610e21565b506000602082860101526020601f19601f83011685010191505092915050565b60006101206001600160a01b038c168352806020840152610e808184018c610e17565b90508281036040840152610e94818b610e17565b9150508760608301528660808301528560a08301528460c08301528360e0830152610ec3610100830184610d85565b9a9950505050505050505050565b634e487b7160e01b600052601160045260246000fd5b80820180821115610db557610db5610ed1565b8082028115828204841417610db557610db5610ed1565b600082610f2e57634e487b7160e01b600052601260045260246000fd5b500490565b600060208284031215610f4557600080fd5b81518015158114610e1057600080fd5b81810381811115610db557610db5610ed1565b600181811c90821680610f7c57607f821691505b602082108103610f9c57634e487b7160e01b600052602260045260246000fd5b5091905056fea26469706673582212200f6801cb30ceb240797374a5a89c51d0d78c530f7d73c034d87679269cae50a264736f6c63430008110033a2646970667358221220e760f4455a1124e3df911f31392615b94548e6da67becbbb08162dbdf40d309864736f6c63430008110033",
  "devdoc": {
    "kind": "dev",
    "methods": {
      "createProject(address,uint256,uint256,string,string,uint256)": {
        "details": "This is called by the CrowdFundingDAO, once the voters have agreed to add this project into active list"
      },
      "owner()": {
        "details": "Returns the address of the current owner."
      },
      "renounceOwnership()": {
        "details": "Leaves the contract without owner. It will not be possible to call `onlyOwner` functions anymore. Can only be called by the current owner. NOTE: Renouncing ownership will leave the contract without an owner, thereby removing any functionality that is only available to the owner."
      },
      "transferOwnership(address)": {
        "details": "Transfers ownership of the contract to a new account (`newOwner`). Can only be called by the current owner."
      }
    },
    "version": 1
  },
  "userdoc": {
    "kind": "user",
    "methods": {},
    "notice": "Propose a project (name, website, logo, prject description, prospects, fund amount, formula: numOfTokens to issue in exchange for 1ETH, dao details) Fund a project (projectId, amount) - become a member of the project's DAO if enough num of tokens Funding complete - DAO created, members added",
    "version": 1
  },
  "storageLayout": {
    "storage": [
      {
        "astId": 400,
        "contract": "contracts/CrowdFunding.sol:CrowdFunding",
        "label": "_owner",
        "offset": 0,
        "slot": "0",
        "type": "t_address"
      },
      {
        "astId": 10136,
        "contract": "contracts/CrowdFunding.sol:CrowdFunding",
        "label": "s_projects",
        "offset": 0,
        "slot": "1",
        "type": "t_array(t_contract(Project)11238)dyn_storage"
      },
      {
        "astId": 10139,
        "contract": "contracts/CrowdFunding.sol:CrowdFunding",
        "label": "currentProjId",
        "offset": 0,
        "slot": "2",
        "type": "t_uint256"
      }
    ],
    "types": {
      "t_address": {
        "encoding": "inplace",
        "label": "address",
        "numberOfBytes": "20"
      },
      "t_array(t_contract(Project)11238)dyn_storage": {
        "base": "t_contract(Project)11238",
        "encoding": "dynamic_array",
        "label": "contract Project[]",
        "numberOfBytes": "32"
      },
      "t_contract(Project)11238": {
        "encoding": "inplace",
        "label": "contract Project",
        "numberOfBytes": "20"
      },
      "t_uint256": {
        "encoding": "inplace",
        "label": "uint256",
        "numberOfBytes": "32"
      }
    }
  }
}