{
  "address": "0xf821D3365814a704e59D7165B3D4CCAa3dF65Ba7",
  "abi": [
    {
      "inputs": [
        {
          "internalType": "string",
          "name": "_tokenName",
          "type": "string"
        },
        {
          "internalType": "string",
          "name": "_tokenSymbol",
          "type": "string"
        }
      ],
      "stateMutability": "nonpayable",
      "type": "constructor"
    },
    {
      "anonymous": false,
      "inputs": [
        {
          "indexed": true,
          "internalType": "address",
          "name": "owner",
          "type": "address"
        },
        {
          "indexed": true,
          "internalType": "address",
          "name": "spender",
          "type": "address"
        },
        {
          "indexed": false,
          "internalType": "uint256",
          "name": "value",
          "type": "uint256"
        }
      ],
      "name": "Approval",
      "type": "event"
    },
    {
      "anonymous": false,
      "inputs": [
        {
          "indexed": true,
          "internalType": "address",
          "name": "delegator",
          "type": "address"
        },
        {
          "indexed": true,
          "internalType": "address",
          "name": "fromDelegate",
          "type": "address"
        },
        {
          "indexed": true,
          "internalType": "address",
          "name": "toDelegate",
          "type": "address"
        }
      ],
      "name": "DelegateChanged",
      "type": "event"
    },
    {
      "anonymous": false,
      "inputs": [
        {
          "indexed": true,
          "internalType": "address",
          "name": "delegate",
          "type": "address"
        },
        {
          "indexed": false,
          "internalType": "uint256",
          "name": "previousBalance",
          "type": "uint256"
        },
        {
          "indexed": false,
          "internalType": "uint256",
          "name": "newBalance",
          "type": "uint256"
        }
      ],
      "name": "DelegateVotesChanged",
      "type": "event"
    },
    {
      "anonymous": false,
      "inputs": [
        {
          "indexed": true,
          "internalType": "address",
          "name": "previousOwner",
          "type": "address"
        },
        {
          "indexed": true,
          "internalType": "address",
          "name": "newOwner",
          "type": "address"
        }
      ],
      "name": "OwnershipTransferred",
      "type": "event"
    },
    {
      "anonymous": false,
      "inputs": [
        {
          "indexed": true,
          "internalType": "address",
          "name": "from",
          "type": "address"
        },
        {
          "indexed": true,
          "internalType": "address",
          "name": "to",
          "type": "address"
        },
        {
          "indexed": false,
          "internalType": "uint256",
          "name": "value",
          "type": "uint256"
        }
      ],
      "name": "Transfer",
      "type": "event"
    },
    {
      "inputs": [],
      "name": "DOMAIN_SEPARATOR",
      "outputs": [
        {
          "internalType": "bytes32",
          "name": "",
          "type": "bytes32"
        }
      ],
      "stateMutability": "view",
      "type": "function"
    },
    {
      "inputs": [
        {
          "internalType": "address",
          "name": "owner",
          "type": "address"
        },
        {
          "internalType": "address",
          "name": "spender",
          "type": "address"
        }
      ],
      "name": "allowance",
      "outputs": [
        {
          "internalType": "uint256",
          "name": "",
          "type": "uint256"
        }
      ],
      "stateMutability": "view",
      "type": "function"
    },
    {
      "inputs": [
        {
          "internalType": "address",
          "name": "spender",
          "type": "address"
        },
        {
          "internalType": "uint256",
          "name": "amount",
          "type": "uint256"
        }
      ],
      "name": "approve",
      "outputs": [
        {
          "internalType": "bool",
          "name": "",
          "type": "bool"
        }
      ],
      "stateMutability": "nonpayable",
      "type": "function"
    },
    {
      "inputs": [
        {
          "internalType": "address",
          "name": "account",
          "type": "address"
        }
      ],
      "name": "balanceOf",
      "outputs": [
        {
          "internalType": "uint256",
          "name": "",
          "type": "uint256"
        }
      ],
      "stateMutability": "view",
      "type": "function"
    },
    {
      "inputs": [
        {
          "internalType": "uint256",
          "name": "amount",
          "type": "uint256"
        }
      ],
      "name": "burn",
      "outputs": [],
      "stateMutability": "nonpayable",
      "type": "function"
    },
    {
      "inputs": [
        {
          "internalType": "address",
          "name": "account",
          "type": "address"
        },
        {
          "internalType": "uint256",
          "name": "amount",
          "type": "uint256"
        }
      ],
      "name": "burnFrom",
      "outputs": [],
      "stateMutability": "nonpayable",
      "type": "function"
    },
    {
      "inputs": [
        {
          "internalType": "address",
          "name": "account",
          "type": "address"
        },
        {
          "internalType": "uint32",
          "name": "pos",
          "type": "uint32"
        }
      ],
      "name": "checkpoints",
      "outputs": [
        {
          "components": [
            {
              "internalType": "uint32",
              "name": "fromBlock",
              "type": "uint32"
            },
            {
              "internalType": "uint224",
              "name": "votes",
              "type": "uint224"
            }
          ],
          "internalType": "struct ERC20Votes.Checkpoint",
          "name": "",
          "type": "tuple"
        }
      ],
      "stateMutability": "view",
      "type": "function"
    },
    {
      "inputs": [],
      "name": "decimals",
      "outputs": [
        {
          "internalType": "uint8",
          "name": "",
          "type": "uint8"
        }
      ],
      "stateMutability": "view",
      "type": "function"
    },
    {
      "inputs": [
        {
          "internalType": "address",
          "name": "spender",
          "type": "address"
        },
        {
          "internalType": "uint256",
          "name": "subtractedValue",
          "type": "uint256"
        }
      ],
      "name": "decreaseAllowance",
      "outputs": [
        {
          "internalType": "bool",
          "name": "",
          "type": "bool"
        }
      ],
      "stateMutability": "nonpayable",
      "type": "function"
    },
    {
      "inputs": [
        {
          "internalType": "address",
          "name": "delegatee",
          "type": "address"
        }
      ],
      "name": "delegate",
      "outputs": [],
      "stateMutability": "nonpayable",
      "type": "function"
    },
    {
      "inputs": [
        {
          "internalType": "address",
          "name": "delegatee",
          "type": "address"
        },
        {
          "internalType": "uint256",
          "name": "nonce",
          "type": "uint256"
        },
        {
          "internalType": "uint256",
          "name": "expiry",
          "type": "uint256"
        },
        {
          "internalType": "uint8",
          "name": "v",
          "type": "uint8"
        },
        {
          "internalType": "bytes32",
          "name": "r",
          "type": "bytes32"
        },
        {
          "internalType": "bytes32",
          "name": "s",
          "type": "bytes32"
        }
      ],
      "name": "delegateBySig",
      "outputs": [],
      "stateMutability": "nonpayable",
      "type": "function"
    },
    {
      "inputs": [
        {
          "internalType": "address",
          "name": "account",
          "type": "address"
        }
      ],
      "name": "delegates",
      "outputs": [
        {
          "internalType": "address",
          "name": "",
          "type": "address"
        }
      ],
      "stateMutability": "view",
      "type": "function"
    },
    {
      "inputs": [],
      "name": "getMaxSupply",
      "outputs": [
        {
          "internalType": "uint224",
          "name": "",
          "type": "uint224"
        }
      ],
      "stateMutability": "view",
      "type": "function"
    },
    {
      "inputs": [
        {
          "internalType": "uint256",
          "name": "blockNumber",
          "type": "uint256"
        }
      ],
      "name": "getPastTotalSupply",
      "outputs": [
        {
          "internalType": "uint256",
          "name": "",
          "type": "uint256"
        }
      ],
      "stateMutability": "view",
      "type": "function"
    },
    {
      "inputs": [
        {
          "internalType": "address",
          "name": "account",
          "type": "address"
        },
        {
          "internalType": "uint256",
          "name": "blockNumber",
          "type": "uint256"
        }
      ],
      "name": "getPastVotes",
      "outputs": [
        {
          "internalType": "uint256",
          "name": "",
          "type": "uint256"
        }
      ],
      "stateMutability": "view",
      "type": "function"
    },
    {
      "inputs": [
        {
          "internalType": "address",
          "name": "account",
          "type": "address"
        }
      ],
      "name": "getVotes",
      "outputs": [
        {
          "internalType": "uint256",
          "name": "",
          "type": "uint256"
        }
      ],
      "stateMutability": "view",
      "type": "function"
    },
    {
      "inputs": [
        {
          "internalType": "address",
          "name": "spender",
          "type": "address"
        },
        {
          "internalType": "uint256",
          "name": "addedValue",
          "type": "uint256"
        }
      ],
      "name": "increaseAllowance",
      "outputs": [
        {
          "internalType": "bool",
          "name": "",
          "type": "bool"
        }
      ],
      "stateMutability": "nonpayable",
      "type": "function"
    },
    {
      "inputs": [
        {
          "internalType": "address",
          "name": "to",
          "type": "address"
        },
        {
          "internalType": "uint256",
          "name": "amount",
          "type": "uint256"
        }
      ],
      "name": "mint",
      "outputs": [],
      "stateMutability": "nonpayable",
      "type": "function"
    },
    {
      "inputs": [],
      "name": "name",
      "outputs": [
        {
          "internalType": "string",
          "name": "",
          "type": "string"
        }
      ],
      "stateMutability": "view",
      "type": "function"
    },
    {
      "inputs": [
        {
          "internalType": "address",
          "name": "owner",
          "type": "address"
        }
      ],
      "name": "nonces",
      "outputs": [
        {
          "internalType": "uint256",
          "name": "",
          "type": "uint256"
        }
      ],
      "stateMutability": "view",
      "type": "function"
    },
    {
      "inputs": [
        {
          "internalType": "address",
          "name": "account",
          "type": "address"
        }
      ],
      "name": "numCheckpoints",
      "outputs": [
        {
          "internalType": "uint32",
          "name": "",
          "type": "uint32"
        }
      ],
      "stateMutability": "view",
      "type": "function"
    },
    {
      "inputs": [],
      "name": "owner",
      "outputs": [
        {
          "internalType": "address",
          "name": "",
          "type": "address"
        }
      ],
      "stateMutability": "view",
      "type": "function"
    },
    {
      "inputs": [
        {
          "internalType": "address",
          "name": "owner",
          "type": "address"
        },
        {
          "internalType": "address",
          "name": "spender",
          "type": "address"
        },
        {
          "internalType": "uint256",
          "name": "value",
          "type": "uint256"
        },
        {
          "internalType": "uint256",
          "name": "deadline",
          "type": "uint256"
        },
        {
          "internalType": "uint8",
          "name": "v",
          "type": "uint8"
        },
        {
          "internalType": "bytes32",
          "name": "r",
          "type": "bytes32"
        },
        {
          "internalType": "bytes32",
          "name": "s",
          "type": "bytes32"
        }
      ],
      "name": "permit",
      "outputs": [],
      "stateMutability": "nonpayable",
      "type": "function"
    },
    {
      "inputs": [],
      "name": "renounceOwnership",
      "outputs": [],
      "stateMutability": "nonpayable",
      "type": "function"
    },
    {
      "inputs": [],
      "name": "s_maxSupply",
      "outputs": [
        {
          "internalType": "uint256",
          "name": "",
          "type": "uint256"
        }
      ],
      "stateMutability": "view",
      "type": "function"
    },
    {
      "inputs": [],
      "name": "symbol",
      "outputs": [
        {
          "internalType": "string",
          "name": "",
          "type": "string"
        }
      ],
      "stateMutability": "view",
      "type": "function"
    },
    {
      "inputs": [],
      "name": "totalSupply",
      "outputs": [
        {
          "internalType": "uint256",
          "name": "",
          "type": "uint256"
        }
      ],
      "stateMutability": "view",
      "type": "function"
    },
    {
      "inputs": [
        {
          "internalType": "address",
          "name": "to",
          "type": "address"
        },
        {
          "internalType": "uint256",
          "name": "amount",
          "type": "uint256"
        }
      ],
      "name": "transfer",
      "outputs": [
        {
          "internalType": "bool",
          "name": "",
          "type": "bool"
        }
      ],
      "stateMutability": "nonpayable",
      "type": "function"
    },
    {
      "inputs": [
        {
          "internalType": "address",
          "name": "from",
          "type": "address"
        },
        {
          "internalType": "address",
          "name": "to",
          "type": "address"
        },
        {
          "internalType": "uint256",
          "name": "amount",
          "type": "uint256"
        }
      ],
      "name": "transferFrom",
      "outputs": [
        {
          "internalType": "bool",
          "name": "",
          "type": "bool"
        }
      ],
      "stateMutability": "nonpayable",
      "type": "function"
    },
    {
      "inputs": [
        {
          "internalType": "address",
          "name": "newOwner",
          "type": "address"
        }
      ],
      "name": "transferOwnership",
      "outputs": [],
      "stateMutability": "nonpayable",
      "type": "function"
    }
  ],
  "transactionHash": "0xd03ee8a27cb235e57fa3ef113d35c86840e84218c5502731b36e7a7273d0a7b2",
  "args": [
    "VCDao",
    "VCD"
  ],
  "numDeployments": 1,
  "solcInputHash": "153cc6cd7a9d679d2950216330ded882",
  "bytecode": "0x61014060405269d3c21bcecceda1000000600b553480156200002057600080fd5b50604051620054b7380380620054b7833981810160405281019062000046919062000d59565b81806040518060400160405280600181526020017f31000000000000000000000000000000000000000000000000000000000000008152508484816003908162000091919062001029565b508060049081620000a3919062001029565b505050620000c6620000ba6200019560201b60201c565b6200019d60201b60201c565b60008280519060200120905060008280519060200120905060007f8b73c3c69bb8fe3d512ecc4cf759cc79239f7b179b0ffacaa9a75d522b39400f90508260e081815250508161010081815250504660a081815250506200012f8184846200026360201b60201c565b608081815250503073ffffffffffffffffffffffffffffffffffffffff1660c08173ffffffffffffffffffffffffffffffffffffffff16815250508061012081815250505050505050506200018d33600b546200029f60201b60201c565b505062001547565b600033905090565b6000600560009054906101000a900473ffffffffffffffffffffffffffffffffffffffff16905081600560006101000a81548173ffffffffffffffffffffffffffffffffffffffff021916908373ffffffffffffffffffffffffffffffffffffffff1602179055508173ffffffffffffffffffffffffffffffffffffffff168173ffffffffffffffffffffffffffffffffffffffff167f8be0079c531659141344cd1fd0a4f28419497f9722a3daafe3b4186f6b6457e060405160405180910390a35050565b600083838346306040516020016200028095949392919062001181565b6040516020818303038152906040528051906020012090509392505050565b620002b68282620002ba60201b620011071760201c565b5050565b620002d182826200037860201b620011941760201c565b620002e1620004f060201b60201c565b7bffffffffffffffffffffffffffffffffffffffffffffffffffffffff166200030f6200051460201b60201c565b111562000353576040517f08c379a00000000000000000000000000000000000000000000000000000000081526004016200034a9062001265565b60405180910390fd5b62000372600a6200051e60201b620012f317836200053660201b60201c565b50505050565b600073ffffffffffffffffffffffffffffffffffffffff168273ffffffffffffffffffffffffffffffffffffffff1603620003ea576040517f08c379a0000000000000000000000000000000000000000000000000000000008152600401620003e190620012d7565b60405180910390fd5b620003fe60008383620007e760201b60201c565b806002600082825462000412919062001328565b92505081905550806000808473ffffffffffffffffffffffffffffffffffffffff1673ffffffffffffffffffffffffffffffffffffffff168152602001908152602001600020600082825462000469919062001328565b925050819055508173ffffffffffffffffffffffffffffffffffffffff16600073ffffffffffffffffffffffffffffffffffffffff167fddf252ad1be2c89b69c2b068fc378daa952ba7f163c4a11628f55a4df523b3ef83604051620004d0919062001363565b60405180910390a3620004ec60008383620007ec60201b60201c565b5050565b60007bffffffffffffffffffffffffffffffffffffffffffffffffffffffff905090565b6000600254905090565b600081836200052e919062001328565b905092915050565b60008060008580549050905060008114620005ab57856001826200055b919062001380565b815481106200056f576200056e620013bb565b5b9060005260206000200160000160049054906101000a90047bffffffffffffffffffffffffffffffffffffffffffffffffffffffff16620005ae565b60005b7bffffffffffffffffffffffffffffffffffffffffffffffffffffffff169250620005da83858760201c565b91506000811180156200063357504386600183620005f9919062001380565b815481106200060d576200060c620013bb565b5b9060005260206000200160000160009054906101000a900463ffffffff1663ffffffff16145b15620006d4576200064f826200080960201b620013091760201c565b866001836200065f919062001380565b81548110620006735762000672620013bb565b5b9060005260206000200160000160046101000a8154817bffffffffffffffffffffffffffffffffffffffffffffffffffffffff02191690837bffffffffffffffffffffffffffffffffffffffffffffffffffffffff160217905550620007de565b856040518060400160405280620006f6436200087760201b620013741760201c565b63ffffffff16815260200162000717856200080960201b620013091760201c565b7bffffffffffffffffffffffffffffffffffffffffffffffffffffffff168152509080600181540180825580915050600190039060005260206000200160009091909190915060008201518160000160006101000a81548163ffffffff021916908363ffffffff16021790555060208201518160000160046101000a8154817bffffffffffffffffffffffffffffffffffffffffffffffffffffffff02191690837bffffffffffffffffffffffffffffffffffffffffffffffffffffffff16021790555050505b50935093915050565b505050565b62000804838383620008cd60201b620013c71760201c565b505050565b60007bffffffffffffffffffffffffffffffffffffffffffffffffffffffff80168211156200086f576040517f08c379a0000000000000000000000000000000000000000000000000000000008152600401620008669062001460565b60405180910390fd5b819050919050565b600063ffffffff8016821115620008c5576040517f08c379a0000000000000000000000000000000000000000000000000000000008152600401620008bc90620014f8565b60405180910390fd5b819050919050565b620008e58383836200091d60201b620013f21760201c565b62000918620008fa846200092260201b60201c565b6200090b846200092260201b60201c565b836200098b60201b60201c565b505050565b505050565b6000600860008373ffffffffffffffffffffffffffffffffffffffff1673ffffffffffffffffffffffffffffffffffffffff16815260200190815260200160002060009054906101000a900473ffffffffffffffffffffffffffffffffffffffff169050919050565b8173ffffffffffffffffffffffffffffffffffffffff168373ffffffffffffffffffffffffffffffffffffffff1614158015620009c85750600081115b1562000ba957600073ffffffffffffffffffffffffffffffffffffffff168373ffffffffffffffffffffffffffffffffffffffff161462000abb5760008062000a62600960008773ffffffffffffffffffffffffffffffffffffffff1673ffffffffffffffffffffffffffffffffffffffff16815260200190815260200160002062000bae60201b620013f717856200053660201b60201c565b915091508473ffffffffffffffffffffffffffffffffffffffff167fdec2bacdd2f05b59de34da9b523dff8be42e5e38e818c82fdb0bae774387a724838360405162000ab09291906200151a565b60405180910390a250505b600073ffffffffffffffffffffffffffffffffffffffff168273ffffffffffffffffffffffffffffffffffffffff161462000ba85760008062000b4f600960008673ffffffffffffffffffffffffffffffffffffffff1673ffffffffffffffffffffffffffffffffffffffff1681526020019081526020016000206200051e60201b620012f317856200053660201b60201c565b915091508373ffffffffffffffffffffffffffffffffffffffff167fdec2bacdd2f05b59de34da9b523dff8be42e5e38e818c82fdb0bae774387a724838360405162000b9d9291906200151a565b60405180910390a250505b5b505050565b6000818362000bbe919062001380565b905092915050565b6000604051905090565b600080fd5b600080fd5b600080fd5b600080fd5b6000601f19601f8301169050919050565b7f4e487b7100000000000000000000000000000000000000000000000000000000600052604160045260246000fd5b62000c2f8262000be4565b810181811067ffffffffffffffff8211171562000c515762000c5062000bf5565b5b80604052505050565b600062000c6662000bc6565b905062000c74828262000c24565b919050565b600067ffffffffffffffff82111562000c975762000c9662000bf5565b5b62000ca28262000be4565b9050602081019050919050565b60005b8381101562000ccf57808201518184015260208101905062000cb2565b60008484015250505050565b600062000cf262000cec8462000c79565b62000c5a565b90508281526020810184848401111562000d115762000d1062000bdf565b5b62000d1e84828562000caf565b509392505050565b600082601f83011262000d3e5762000d3d62000bda565b5b815162000d5084826020860162000cdb565b91505092915050565b6000806040838503121562000d735762000d7262000bd0565b5b600083015167ffffffffffffffff81111562000d945762000d9362000bd5565b5b62000da28582860162000d26565b925050602083015167ffffffffffffffff81111562000dc65762000dc562000bd5565b5b62000dd48582860162000d26565b9150509250929050565b600081519050919050565b7f4e487b7100000000000000000000000000000000000000000000000000000000600052602260045260246000fd5b6000600282049050600182168062000e3157607f821691505b60208210810362000e475762000e4662000de9565b5b50919050565b60008190508160005260206000209050919050565b60006020601f8301049050919050565b600082821b905092915050565b60006008830262000eb17fffffffffffffffffffffffffffffffffffffffffffffffffffffffffffffffff8262000e72565b62000ebd868362000e72565b95508019841693508086168417925050509392505050565b6000819050919050565b6000819050919050565b600062000f0a62000f0462000efe8462000ed5565b62000edf565b62000ed5565b9050919050565b6000819050919050565b62000f268362000ee9565b62000f3e62000f358262000f11565b84845462000e7f565b825550505050565b600090565b62000f5562000f46565b62000f6281848462000f1b565b505050565b5b8181101562000f8a5762000f7e60008262000f4b565b60018101905062000f68565b5050565b601f82111562000fd95762000fa38162000e4d565b62000fae8462000e62565b8101602085101562000fbe578190505b62000fd662000fcd8562000e62565b83018262000f67565b50505b505050565b600082821c905092915050565b600062000ffe6000198460080262000fde565b1980831691505092915050565b600062001019838362000feb565b9150826002028217905092915050565b620010348262000dde565b67ffffffffffffffff81111562001050576200104f62000bf5565b5b6200105c825462000e18565b6200106982828562000f8e565b600060209050601f831160018114620010a157600084156200108c578287015190505b6200109885826200100b565b86555062001108565b601f198416620010b18662000e4d565b60005b82811015620010db57848901518255600182019150602085019450602081019050620010b4565b86831015620010fb5784890151620010f7601f89168262000feb565b8355505b6001600288020188555050505b505050505050565b6000819050919050565b620011258162001110565b82525050565b620011368162000ed5565b82525050565b600073ffffffffffffffffffffffffffffffffffffffff82169050919050565b600062001169826200113c565b9050919050565b6200117b816200115c565b82525050565b600060a0820190506200119860008301886200111a565b620011a760208301876200111a565b620011b660408301866200111a565b620011c560608301856200112b565b620011d4608083018462001170565b9695505050505050565b600082825260208201905092915050565b7f4552433230566f7465733a20746f74616c20737570706c79207269736b73206f60008201527f766572666c6f77696e6720766f74657300000000000000000000000000000000602082015250565b60006200124d603083620011de565b91506200125a82620011ef565b604082019050919050565b6000602082019050818103600083015262001280816200123e565b9050919050565b7f45524332303a206d696e7420746f20746865207a65726f206164647265737300600082015250565b6000620012bf601f83620011de565b9150620012cc8262001287565b602082019050919050565b60006020820190508181036000830152620012f281620012b0565b9050919050565b7f4e487b7100000000000000000000000000000000000000000000000000000000600052601160045260246000fd5b6000620013358262000ed5565b9150620013428362000ed5565b92508282019050808211156200135d576200135c620012f9565b5b92915050565b60006020820190506200137a60008301846200112b565b92915050565b60006200138d8262000ed5565b91506200139a8362000ed5565b9250828203905081811115620013b557620013b4620012f9565b5b92915050565b7f4e487b7100000000000000000000000000000000000000000000000000000000600052603260045260246000fd5b7f53616665436173743a2076616c756520646f65736e27742066697420696e203260008201527f3234206269747300000000000000000000000000000000000000000000000000602082015250565b600062001448602783620011de565b91506200145582620013ea565b604082019050919050565b600060208201905081810360008301526200147b8162001439565b9050919050565b7f53616665436173743a2076616c756520646f65736e27742066697420696e203360008201527f3220626974730000000000000000000000000000000000000000000000000000602082015250565b6000620014e0602683620011de565b9150620014ed8262001482565b604082019050919050565b600060208201905081810360008301526200151381620014d1565b9050919050565b60006040820190506200153160008301856200112b565b6200154060208301846200112b565b9392505050565b60805160a05160c05160e0516101005161012051613f20620015976000396000611997015260006119d9015260006119b8015260006118ed015260006119430152600061196c0152613f206000f3fe608060405234801561001057600080fd5b50600436106101da5760003560e01c806370a08231116101045780639ab24eb0116100a2578063d505accf11610071578063d505accf146105a5578063dd62ed3e146105c1578063f1127ed8146105f1578063f2fde38b14610621576101da565b80639ab24eb0146104f9578063a457c2d714610529578063a9059cbb14610559578063c3cda52014610589576101da565b80637ecebe00116100de5780637ecebe001461045d5780638da5cb5b1461048d5780638e539e8c146104ab57806395d89b41146104db576101da565b806370a0823114610407578063715018a61461043757806379cc679014610441576101da565b80633a46b1a81161017c578063587cde1e1161014b578063587cde1e1461036d5780635c19a95c1461039d5780635d641847146103b95780636fcfff45146103d7576101da565b80633a46b1a8146102e757806340c10f191461031757806342966c68146103335780634c0f38c21461034f576101da565b806323b872dd116101b857806323b872dd1461024b578063313ce5671461027b5780633644e5151461029957806339509351146102b7576101da565b806306fdde03146101df578063095ea7b3146101fd57806318160ddd1461022d575b600080fd5b6101e761063d565b6040516101f49190612927565b60405180910390f35b610217600480360381019061021291906129e2565b6106cf565b6040516102249190612a3d565b60405180910390f35b6102356106f2565b6040516102429190612a67565b60405180910390f35b61026560048036038101906102609190612a82565b6106fc565b6040516102729190612a3d565b60405180910390f35b61028361072b565b6040516102909190612af1565b60405180910390f35b6102a1610734565b6040516102ae9190612b25565b60405180910390f35b6102d160048036038101906102cc91906129e2565b610743565b6040516102de9190612a3d565b60405180910390f35b61030160048036038101906102fc91906129e2565b61077a565b60405161030e9190612a67565b60405180910390f35b610331600480360381019061032c91906129e2565b61080e565b005b61034d60048036038101906103489190612b40565b610824565b005b610357610838565b6040516103649190612ba4565b60405180910390f35b61038760048036038101906103829190612bbf565b610847565b6040516103949190612bfb565b60405180910390f35b6103b760048036038101906103b29190612bbf565b6108b0565b005b6103c16108c4565b6040516103ce9190612a67565b60405180910390f35b6103f160048036038101906103ec9190612bbf565b6108ca565b6040516103fe9190612c35565b60405180910390f35b610421600480360381019061041c9190612bbf565b61091e565b60405161042e9190612a67565b60405180910390f35b61043f610966565b005b61045b600480360381019061045691906129e2565b61097a565b005b61047760048036038101906104729190612bbf565b61099a565b6040516104849190612a67565b60405180910390f35b6104956109ea565b6040516104a29190612bfb565b60405180910390f35b6104c560048036038101906104c09190612b40565b610a14565b6040516104d29190612a67565b60405180910390f35b6104e3610a6a565b6040516104f09190612927565b60405180910390f35b610513600480360381019061050e9190612bbf565b610afc565b6040516105209190612a67565b60405180910390f35b610543600480360381019061053e91906129e2565b610c0d565b6040516105509190612a3d565b60405180910390f35b610573600480360381019061056e91906129e2565b610c84565b6040516105809190612a3d565b60405180910390f35b6105a3600480360381019061059e9190612ca8565b610ca7565b005b6105bf60048036038101906105ba9190612d35565b610dab565b005b6105db60048036038101906105d69190612dd7565b610eed565b6040516105e89190612a67565b60405180910390f35b61060b60048036038101906106069190612e43565b610f74565b6040516106189190612ed0565b60405180910390f35b61063b60048036038101906106369190612bbf565b611084565b005b60606003805461064c90612f1a565b80601f016020809104026020016040519081016040528092919081815260200182805461067890612f1a565b80156106c55780601f1061069a576101008083540402835291602001916106c5565b820191906000526020600020905b8154815290600101906020018083116106a857829003601f168201915b5050505050905090565b6000806106da61140d565b90506106e7818585611415565b600191505092915050565b6000600254905090565b60008061070761140d565b90506107148582856115de565b61071f85858561166a565b60019150509392505050565b60006012905090565b600061073e6118e9565b905090565b60008061074e61140d565b905061076f8185856107608589610eed565b61076a9190612f7a565b611415565b600191505092915050565b60004382106107be576040517f08c379a00000000000000000000000000000000000000000000000000000000081526004016107b590612ffa565b60405180910390fd5b610806600960008573ffffffffffffffffffffffffffffffffffffffff1673ffffffffffffffffffffffffffffffffffffffff16815260200190815260200160002083611a03565b905092915050565b610816611b0f565b6108208282611b8d565b5050565b61083561082f61140d565b82611b9b565b50565b6000610842611ba9565b905090565b6000600860008373ffffffffffffffffffffffffffffffffffffffff1673ffffffffffffffffffffffffffffffffffffffff16815260200190815260200160002060009054906101000a900473ffffffffffffffffffffffffffffffffffffffff169050919050565b6108c16108bb61140d565b82611bcd565b50565b600b5481565b6000610917600960008473ffffffffffffffffffffffffffffffffffffffff1673ffffffffffffffffffffffffffffffffffffffff16815260200190815260200160002080549050611374565b9050919050565b60008060008373ffffffffffffffffffffffffffffffffffffffff1673ffffffffffffffffffffffffffffffffffffffff168152602001908152602001600020549050919050565b61096e611b0f565b6109786000611ce7565b565b61098c8261098661140d565b836115de565b6109968282611b9b565b5050565b60006109e3600660008473ffffffffffffffffffffffffffffffffffffffff1673ffffffffffffffffffffffffffffffffffffffff168152602001908152602001600020611dad565b9050919050565b6000600560009054906101000a900473ffffffffffffffffffffffffffffffffffffffff16905090565b6000438210610a58576040517f08c379a0000000000000000000000000000000000000000000000000000000008152600401610a4f90612ffa565b60405180910390fd5b610a63600a83611a03565b9050919050565b606060048054610a7990612f1a565b80601f0160208091040260200160405190810160405280929190818152602001828054610aa590612f1a565b8015610af25780601f10610ac757610100808354040283529160200191610af2565b820191906000526020600020905b815481529060010190602001808311610ad557829003601f168201915b5050505050905090565b600080600960008473ffffffffffffffffffffffffffffffffffffffff1673ffffffffffffffffffffffffffffffffffffffff16815260200190815260200160002080549050905060008114610be457600960008473ffffffffffffffffffffffffffffffffffffffff1673ffffffffffffffffffffffffffffffffffffffff168152602001908152602001600020600182610b98919061301a565b81548110610ba957610ba861304e565b5b9060005260206000200160000160049054906101000a90047bffffffffffffffffffffffffffffffffffffffffffffffffffffffff16610be7565b60005b7bffffffffffffffffffffffffffffffffffffffffffffffffffffffff16915050919050565b600080610c1861140d565b90506000610c268286610eed565b905083811015610c6b576040517f08c379a0000000000000000000000000000000000000000000000000000000008152600401610c62906130ef565b60405180910390fd5b610c788286868403611415565b60019250505092915050565b600080610c8f61140d565b9050610c9c81858561166a565b600191505092915050565b83421115610cea576040517f08c379a0000000000000000000000000000000000000000000000000000000008152600401610ce19061315b565b60405180910390fd5b6000610d4c610d447fe48329057bfd03d55e49b547132e39cffd9c1820ad7b9d4c5307691425d15adf898989604051602001610d29949392919061317b565b60405160208183030381529060405280519060200120611dbb565b858585611dd5565b9050610d5781611e00565b8614610d98576040517f08c379a0000000000000000000000000000000000000000000000000000000008152600401610d8f9061320c565b60405180910390fd5b610da28188611bcd565b50505050505050565b83421115610dee576040517f08c379a0000000000000000000000000000000000000000000000000000000008152600401610de590613278565b60405180910390fd5b60007f6e71edae12b1b97f4d1f60370fef10105fa2faae0126114a169c64845d6126c9888888610e1d8c611e00565b89604051602001610e3396959493929190613298565b6040516020818303038152906040528051906020012090506000610e5682611dbb565b90506000610e6682878787611dd5565b90508973ffffffffffffffffffffffffffffffffffffffff168173ffffffffffffffffffffffffffffffffffffffff1614610ed6576040517f08c379a0000000000000000000000000000000000000000000000000000000008152600401610ecd90613345565b60405180910390fd5b610ee18a8a8a611415565b50505050505050505050565b6000600160008473ffffffffffffffffffffffffffffffffffffffff1673ffffffffffffffffffffffffffffffffffffffff16815260200190815260200160002060008373ffffffffffffffffffffffffffffffffffffffff1673ffffffffffffffffffffffffffffffffffffffff16815260200190815260200160002054905092915050565b610f7c612859565b600960008473ffffffffffffffffffffffffffffffffffffffff1673ffffffffffffffffffffffffffffffffffffffff1681526020019081526020016000208263ffffffff1681548110610fd357610fd261304e565b5b906000526020600020016040518060400160405290816000820160009054906101000a900463ffffffff1663ffffffff1663ffffffff1681526020016000820160049054906101000a90047bffffffffffffffffffffffffffffffffffffffffffffffffffffffff167bffffffffffffffffffffffffffffffffffffffffffffffffffffffff167bffffffffffffffffffffffffffffffffffffffffffffffffffffffff1681525050905092915050565b61108c611b0f565b600073ffffffffffffffffffffffffffffffffffffffff168173ffffffffffffffffffffffffffffffffffffffff16036110fb576040517f08c379a00000000000000000000000000000000000000000000000000000000081526004016110f2906133d7565b60405180910390fd5b61110481611ce7565b50565b6111118282611194565b611119611ba9565b7bffffffffffffffffffffffffffffffffffffffffffffffffffffffff1661113f6106f2565b1115611180576040517f08c379a000000000000000000000000000000000000000000000000000000000815260040161117790613469565b60405180910390fd5b61118e600a6112f383611e5e565b50505050565b600073ffffffffffffffffffffffffffffffffffffffff168273ffffffffffffffffffffffffffffffffffffffff1603611203576040517f08c379a00000000000000000000000000000000000000000000000000000000081526004016111fa906134d5565b60405180910390fd5b61120f600083836120d6565b80600260008282546112219190612f7a565b92505081905550806000808473ffffffffffffffffffffffffffffffffffffffff1673ffffffffffffffffffffffffffffffffffffffff16815260200190815260200160002060008282546112769190612f7a565b925050819055508173ffffffffffffffffffffffffffffffffffffffff16600073ffffffffffffffffffffffffffffffffffffffff167fddf252ad1be2c89b69c2b068fc378daa952ba7f163c4a11628f55a4df523b3ef836040516112db9190612a67565b60405180910390a36112ef600083836120db565b5050565b600081836113019190612f7a565b905092915050565b60007bffffffffffffffffffffffffffffffffffffffffffffffffffffffff801682111561136c576040517f08c379a000000000000000000000000000000000000000000000000000000000815260040161136390613567565b60405180910390fd5b819050919050565b600063ffffffff80168211156113bf576040517f08c379a00000000000000000000000000000000000000000000000000000000081526004016113b6906135f9565b60405180910390fd5b819050919050565b6113d28383836113f2565b6113ed6113de84610847565b6113e784610847565b836120eb565b505050565b505050565b60008183611405919061301a565b905092915050565b600033905090565b600073ffffffffffffffffffffffffffffffffffffffff168373ffffffffffffffffffffffffffffffffffffffff1603611484576040517f08c379a000000000000000000000000000000000000000000000000000000000815260040161147b9061368b565b60405180910390fd5b600073ffffffffffffffffffffffffffffffffffffffff168273ffffffffffffffffffffffffffffffffffffffff16036114f3576040517f08c379a00000000000000000000000000000000000000000000000000000000081526004016114ea9061371d565b60405180910390fd5b80600160008573ffffffffffffffffffffffffffffffffffffffff1673ffffffffffffffffffffffffffffffffffffffff16815260200190815260200160002060008473ffffffffffffffffffffffffffffffffffffffff1673ffffffffffffffffffffffffffffffffffffffff168152602001908152602001600020819055508173ffffffffffffffffffffffffffffffffffffffff168373ffffffffffffffffffffffffffffffffffffffff167f8c5be1e5ebec7d5bd14f71427d1e84f3dd0314c0f7b2291e5b200ac8c7c3b925836040516115d19190612a67565b60405180910390a3505050565b60006115ea8484610eed565b90507fffffffffffffffffffffffffffffffffffffffffffffffffffffffffffffffff81146116645781811015611656576040517f08c379a000000000000000000000000000000000000000000000000000000000815260040161164d90613789565b60405180910390fd5b6116638484848403611415565b5b50505050565b600073ffffffffffffffffffffffffffffffffffffffff168373ffffffffffffffffffffffffffffffffffffffff16036116d9576040517f08c379a00000000000000000000000000000000000000000000000000000000081526004016116d09061381b565b60405180910390fd5b600073ffffffffffffffffffffffffffffffffffffffff168273ffffffffffffffffffffffffffffffffffffffff1603611748576040517f08c379a000000000000000000000000000000000000000000000000000000000815260040161173f906138ad565b60405180910390fd5b6117538383836120d6565b60008060008573ffffffffffffffffffffffffffffffffffffffff1673ffffffffffffffffffffffffffffffffffffffff168152602001908152602001600020549050818110156117d9576040517f08c379a00000000000000000000000000000000000000000000000000000000081526004016117d09061393f565b60405180910390fd5b8181036000808673ffffffffffffffffffffffffffffffffffffffff1673ffffffffffffffffffffffffffffffffffffffff16815260200190815260200160002081905550816000808573ffffffffffffffffffffffffffffffffffffffff1673ffffffffffffffffffffffffffffffffffffffff168152602001908152602001600020600082825461186c9190612f7a565b925050819055508273ffffffffffffffffffffffffffffffffffffffff168473ffffffffffffffffffffffffffffffffffffffff167fddf252ad1be2c89b69c2b068fc378daa952ba7f163c4a11628f55a4df523b3ef846040516118d09190612a67565b60405180910390a36118e38484846120db565b50505050565b60007f000000000000000000000000000000000000000000000000000000000000000073ffffffffffffffffffffffffffffffffffffffff163073ffffffffffffffffffffffffffffffffffffffff1614801561196557507f000000000000000000000000000000000000000000000000000000000000000046145b15611992577f00000000000000000000000000000000000000000000000000000000000000009050611a00565b6119fd7f00000000000000000000000000000000000000000000000000000000000000007f00000000000000000000000000000000000000000000000000000000000000007f00000000000000000000000000000000000000000000000000000000000000006122e4565b90505b90565b6000808380549050905060005b81811015611a82576000611a24828461231e565b905084868281548110611a3a57611a3961304e565b5b9060005260206000200160000160009054906101000a900463ffffffff1663ffffffff161115611a6c57809250611a7c565b600181611a799190612f7a565b91505b50611a10565b60008214611ae45784600183611a98919061301a565b81548110611aa957611aa861304e565b5b9060005260206000200160000160049054906101000a90047bffffffffffffffffffffffffffffffffffffffffffffffffffffffff16611ae7565b60005b7bffffffffffffffffffffffffffffffffffffffffffffffffffffffff169250505092915050565b611b1761140d565b73ffffffffffffffffffffffffffffffffffffffff16611b356109ea565b73ffffffffffffffffffffffffffffffffffffffff1614611b8b576040517f08c379a0000000000000000000000000000000000000000000000000000000008152600401611b82906139ab565b60405180910390fd5b565b611b978282611107565b5050565b611ba58282612344565b5050565b60007bffffffffffffffffffffffffffffffffffffffffffffffffffffffff905090565b6000611bd883610847565b90506000611be58461091e565b905082600860008673ffffffffffffffffffffffffffffffffffffffff1673ffffffffffffffffffffffffffffffffffffffff16815260200190815260200160002060006101000a81548173ffffffffffffffffffffffffffffffffffffffff021916908373ffffffffffffffffffffffffffffffffffffffff1602179055508273ffffffffffffffffffffffffffffffffffffffff168273ffffffffffffffffffffffffffffffffffffffff168573ffffffffffffffffffffffffffffffffffffffff167f3134e8a2e6d97e929a7e54011ea5485d7d196dd5f0ba4d4ef95803e8e3fc257f60405160405180910390a4611ce18284836120eb565b50505050565b6000600560009054906101000a900473ffffffffffffffffffffffffffffffffffffffff16905081600560006101000a81548173ffffffffffffffffffffffffffffffffffffffff021916908373ffffffffffffffffffffffffffffffffffffffff1602179055508173ffffffffffffffffffffffffffffffffffffffff168173ffffffffffffffffffffffffffffffffffffffff167f8be0079c531659141344cd1fd0a4f28419497f9722a3daafe3b4186f6b6457e060405160405180910390a35050565b600081600001549050919050565b6000611dce611dc86118e9565b83612362565b9050919050565b6000806000611de687878787612395565b91509150611df3816124a1565b8192505050949350505050565b600080600660008473ffffffffffffffffffffffffffffffffffffffff1673ffffffffffffffffffffffffffffffffffffffff1681526020019081526020016000209050611e4d81611dad565b9150611e588161266d565b50919050565b60008060008580549050905060008114611ecc5785600182611e80919061301a565b81548110611e9157611e9061304e565b5b9060005260206000200160000160049054906101000a90047bffffffffffffffffffffffffffffffffffffffffffffffffffffffff16611ecf565b60005b7bffffffffffffffffffffffffffffffffffffffffffffffffffffffff169250611efd83858763ffffffff16565b9150600081118015611f5057504386600183611f19919061301a565b81548110611f2a57611f2961304e565b5b9060005260206000200160000160009054906101000a900463ffffffff1663ffffffff16145b15611fdd57611f5e82611309565b86600183611f6c919061301a565b81548110611f7d57611f7c61304e565b5b9060005260206000200160000160046101000a8154817bffffffffffffffffffffffffffffffffffffffffffffffffffffffff02191690837bffffffffffffffffffffffffffffffffffffffffffffffffffffffff1602179055506120cd565b856040518060400160405280611ff243611374565b63ffffffff16815260200161200685611309565b7bffffffffffffffffffffffffffffffffffffffffffffffffffffffff168152509080600181540180825580915050600190039060005260206000200160009091909190915060008201518160000160006101000a81548163ffffffff021916908363ffffffff16021790555060208201518160000160046101000a8154817bffffffffffffffffffffffffffffffffffffffffffffffffffffffff02191690837bffffffffffffffffffffffffffffffffffffffffffffffffffffffff16021790555050505b50935093915050565b505050565b6120e68383836113c7565b505050565b8173ffffffffffffffffffffffffffffffffffffffff168373ffffffffffffffffffffffffffffffffffffffff16141580156121275750600081115b156122df57600073ffffffffffffffffffffffffffffffffffffffff168373ffffffffffffffffffffffffffffffffffffffff1614612205576000806121ae600960008773ffffffffffffffffffffffffffffffffffffffff1673ffffffffffffffffffffffffffffffffffffffff1681526020019081526020016000206113f785611e5e565b915091508473ffffffffffffffffffffffffffffffffffffffff167fdec2bacdd2f05b59de34da9b523dff8be42e5e38e818c82fdb0bae774387a72483836040516121fa9291906139cb565b60405180910390a250505b600073ffffffffffffffffffffffffffffffffffffffff168273ffffffffffffffffffffffffffffffffffffffff16146122de57600080612287600960008673ffffffffffffffffffffffffffffffffffffffff1673ffffffffffffffffffffffffffffffffffffffff1681526020019081526020016000206112f385611e5e565b915091508373ffffffffffffffffffffffffffffffffffffffff167fdec2bacdd2f05b59de34da9b523dff8be42e5e38e818c82fdb0bae774387a72483836040516122d39291906139cb565b60405180910390a250505b5b505050565b600083838346306040516020016122ff9594939291906139f4565b6040516020818303038152906040528051906020012090509392505050565b6000600282841861232f9190613a76565b82841661233c9190612f7a565b905092915050565b61234e8282612683565b61235c600a6113f783611e5e565b50505050565b60008282604051602001612377929190613b1f565b60405160208183030381529060405280519060200120905092915050565b6000807f7fffffffffffffffffffffffffffffff5d576e7357a4501ddfe92f46681b20a08360001c11156123d0576000600391509150612498565b601b8560ff16141580156123e85750601c8560ff1614155b156123fa576000600491509150612498565b60006001878787876040516000815260200160405260405161241f9493929190613b56565b6020604051602081039080840390855afa158015612441573d6000803e3d6000fd5b505050602060405103519050600073ffffffffffffffffffffffffffffffffffffffff168173ffffffffffffffffffffffffffffffffffffffff160361248f57600060019250925050612498565b80600092509250505b94509492505050565b600060048111156124b5576124b4613b9b565b5b8160048111156124c8576124c7613b9b565b5b031561266a57600160048111156124e2576124e1613b9b565b5b8160048111156124f5576124f4613b9b565b5b03612535576040517f08c379a000000000000000000000000000000000000000000000000000000000815260040161252c90613c16565b60405180910390fd5b6002600481111561254957612548613b9b565b5b81600481111561255c5761255b613b9b565b5b0361259c576040517f08c379a000000000000000000000000000000000000000000000000000000000815260040161259390613c82565b60405180910390fd5b600360048111156125b0576125af613b9b565b5b8160048111156125c3576125c2613b9b565b5b03612603576040517f08c379a00000000000000000000000000000000000000000000000000000000081526004016125fa90613d14565b60405180910390fd5b60048081111561261657612615613b9b565b5b81600481111561262957612628613b9b565b5b03612669576040517f08c379a000000000000000000000000000000000000000000000000000000000815260040161266090613da6565b60405180910390fd5b5b50565b6001816000016000828254019250508190555050565b600073ffffffffffffffffffffffffffffffffffffffff168273ffffffffffffffffffffffffffffffffffffffff16036126f2576040517f08c379a00000000000000000000000000000000000000000000000000000000081526004016126e990613e38565b60405180910390fd5b6126fe826000836120d6565b60008060008473ffffffffffffffffffffffffffffffffffffffff1673ffffffffffffffffffffffffffffffffffffffff16815260200190815260200160002054905081811015612784576040517f08c379a000000000000000000000000000000000000000000000000000000000815260040161277b90613eca565b60405180910390fd5b8181036000808573ffffffffffffffffffffffffffffffffffffffff1673ffffffffffffffffffffffffffffffffffffffff1681526020019081526020016000208190555081600260008282546127db919061301a565b92505081905550600073ffffffffffffffffffffffffffffffffffffffff168373ffffffffffffffffffffffffffffffffffffffff167fddf252ad1be2c89b69c2b068fc378daa952ba7f163c4a11628f55a4df523b3ef846040516128409190612a67565b60405180910390a3612854836000846120db565b505050565b6040518060400160405280600063ffffffff16815260200160007bffffffffffffffffffffffffffffffffffffffffffffffffffffffff1681525090565b600081519050919050565b600082825260208201905092915050565b60005b838110156128d15780820151818401526020810190506128b6565b60008484015250505050565b6000601f19601f8301169050919050565b60006128f982612897565b61290381856128a2565b93506129138185602086016128b3565b61291c816128dd565b840191505092915050565b6000602082019050818103600083015261294181846128ee565b905092915050565b600080fd5b600073ffffffffffffffffffffffffffffffffffffffff82169050919050565b60006129798261294e565b9050919050565b6129898161296e565b811461299457600080fd5b50565b6000813590506129a681612980565b92915050565b6000819050919050565b6129bf816129ac565b81146129ca57600080fd5b50565b6000813590506129dc816129b6565b92915050565b600080604083850312156129f9576129f8612949565b5b6000612a0785828601612997565b9250506020612a18858286016129cd565b9150509250929050565b60008115159050919050565b612a3781612a22565b82525050565b6000602082019050612a526000830184612a2e565b92915050565b612a61816129ac565b82525050565b6000602082019050612a7c6000830184612a58565b92915050565b600080600060608486031215612a9b57612a9a612949565b5b6000612aa986828701612997565b9350506020612aba86828701612997565b9250506040612acb868287016129cd565b9150509250925092565b600060ff82169050919050565b612aeb81612ad5565b82525050565b6000602082019050612b066000830184612ae2565b92915050565b6000819050919050565b612b1f81612b0c565b82525050565b6000602082019050612b3a6000830184612b16565b92915050565b600060208284031215612b5657612b55612949565b5b6000612b64848285016129cd565b91505092915050565b60007bffffffffffffffffffffffffffffffffffffffffffffffffffffffff82169050919050565b612b9e81612b6d565b82525050565b6000602082019050612bb96000830184612b95565b92915050565b600060208284031215612bd557612bd4612949565b5b6000612be384828501612997565b91505092915050565b612bf58161296e565b82525050565b6000602082019050612c106000830184612bec565b92915050565b600063ffffffff82169050919050565b612c2f81612c16565b82525050565b6000602082019050612c4a6000830184612c26565b92915050565b612c5981612ad5565b8114612c6457600080fd5b50565b600081359050612c7681612c50565b92915050565b612c8581612b0c565b8114612c9057600080fd5b50565b600081359050612ca281612c7c565b92915050565b60008060008060008060c08789031215612cc557612cc4612949565b5b6000612cd389828a01612997565b9650506020612ce489828a016129cd565b9550506040612cf589828a016129cd565b9450506060612d0689828a01612c67565b9350506080612d1789828a01612c93565b92505060a0612d2889828a01612c93565b9150509295509295509295565b600080600080600080600060e0888a031215612d5457612d53612949565b5b6000612d628a828b01612997565b9750506020612d738a828b01612997565b9650506040612d848a828b016129cd565b9550506060612d958a828b016129cd565b9450506080612da68a828b01612c67565b93505060a0612db78a828b01612c93565b92505060c0612dc88a828b01612c93565b91505092959891949750929550565b60008060408385031215612dee57612ded612949565b5b6000612dfc85828601612997565b9250506020612e0d85828601612997565b9150509250929050565b612e2081612c16565b8114612e2b57600080fd5b50565b600081359050612e3d81612e17565b92915050565b60008060408385031215612e5a57612e59612949565b5b6000612e6885828601612997565b9250506020612e7985828601612e2e565b9150509250929050565b612e8c81612c16565b82525050565b612e9b81612b6d565b82525050565b604082016000820151612eb76000850182612e83565b506020820151612eca6020850182612e92565b50505050565b6000604082019050612ee56000830184612ea1565b92915050565b7f4e487b7100000000000000000000000000000000000000000000000000000000600052602260045260246000fd5b60006002820490506001821680612f3257607f821691505b602082108103612f4557612f44612eeb565b5b50919050565b7f4e487b7100000000000000000000000000000000000000000000000000000000600052601160045260246000fd5b6000612f85826129ac565b9150612f90836129ac565b9250828201905080821115612fa857612fa7612f4b565b5b92915050565b7f4552433230566f7465733a20626c6f636b206e6f7420796574206d696e656400600082015250565b6000612fe4601f836128a2565b9150612fef82612fae565b602082019050919050565b6000602082019050818103600083015261301381612fd7565b9050919050565b6000613025826129ac565b9150613030836129ac565b925082820390508181111561304857613047612f4b565b5b92915050565b7f4e487b7100000000000000000000000000000000000000000000000000000000600052603260045260246000fd5b7f45524332303a2064656372656173656420616c6c6f77616e63652062656c6f7760008201527f207a65726f000000000000000000000000000000000000000000000000000000602082015250565b60006130d96025836128a2565b91506130e48261307d565b604082019050919050565b60006020820190508181036000830152613108816130cc565b9050919050565b7f4552433230566f7465733a207369676e61747572652065787069726564000000600082015250565b6000613145601d836128a2565b91506131508261310f565b602082019050919050565b6000602082019050818103600083015261317481613138565b9050919050565b60006080820190506131906000830187612b16565b61319d6020830186612bec565b6131aa6040830185612a58565b6131b76060830184612a58565b95945050505050565b7f4552433230566f7465733a20696e76616c6964206e6f6e636500000000000000600082015250565b60006131f66019836128a2565b9150613201826131c0565b602082019050919050565b60006020820190508181036000830152613225816131e9565b9050919050565b7f45524332305065726d69743a206578706972656420646561646c696e65000000600082015250565b6000613262601d836128a2565b915061326d8261322c565b602082019050919050565b6000602082019050818103600083015261329181613255565b9050919050565b600060c0820190506132ad6000830189612b16565b6132ba6020830188612bec565b6132c76040830187612bec565b6132d46060830186612a58565b6132e16080830185612a58565b6132ee60a0830184612a58565b979650505050505050565b7f45524332305065726d69743a20696e76616c6964207369676e61747572650000600082015250565b600061332f601e836128a2565b915061333a826132f9565b602082019050919050565b6000602082019050818103600083015261335e81613322565b9050919050565b7f4f776e61626c653a206e6577206f776e657220697320746865207a65726f206160008201527f6464726573730000000000000000000000000000000000000000000000000000602082015250565b60006133c16026836128a2565b91506133cc82613365565b604082019050919050565b600060208201905081810360008301526133f0816133b4565b9050919050565b7f4552433230566f7465733a20746f74616c20737570706c79207269736b73206f60008201527f766572666c6f77696e6720766f74657300000000000000000000000000000000602082015250565b60006134536030836128a2565b915061345e826133f7565b604082019050919050565b6000602082019050818103600083015261348281613446565b9050919050565b7f45524332303a206d696e7420746f20746865207a65726f206164647265737300600082015250565b60006134bf601f836128a2565b91506134ca82613489565b602082019050919050565b600060208201905081810360008301526134ee816134b2565b9050919050565b7f53616665436173743a2076616c756520646f65736e27742066697420696e203260008201527f3234206269747300000000000000000000000000000000000000000000000000602082015250565b60006135516027836128a2565b915061355c826134f5565b604082019050919050565b6000602082019050818103600083015261358081613544565b9050919050565b7f53616665436173743a2076616c756520646f65736e27742066697420696e203360008201527f3220626974730000000000000000000000000000000000000000000000000000602082015250565b60006135e36026836128a2565b91506135ee82613587565b604082019050919050565b60006020820190508181036000830152613612816135d6565b9050919050565b7f45524332303a20617070726f76652066726f6d20746865207a65726f2061646460008201527f7265737300000000000000000000000000000000000000000000000000000000602082015250565b60006136756024836128a2565b915061368082613619565b604082019050919050565b600060208201905081810360008301526136a481613668565b9050919050565b7f45524332303a20617070726f766520746f20746865207a65726f20616464726560008201527f7373000000000000000000000000000000000000000000000000000000000000602082015250565b60006137076022836128a2565b9150613712826136ab565b604082019050919050565b60006020820190508181036000830152613736816136fa565b9050919050565b7f45524332303a20696e73756666696369656e7420616c6c6f77616e6365000000600082015250565b6000613773601d836128a2565b915061377e8261373d565b602082019050919050565b600060208201905081810360008301526137a281613766565b9050919050565b7f45524332303a207472616e736665722066726f6d20746865207a65726f20616460008201527f6472657373000000000000000000000000000000000000000000000000000000602082015250565b60006138056025836128a2565b9150613810826137a9565b604082019050919050565b60006020820190508181036000830152613834816137f8565b9050919050565b7f45524332303a207472616e7366657220746f20746865207a65726f206164647260008201527f6573730000000000000000000000000000000000000000000000000000000000602082015250565b60006138976023836128a2565b91506138a28261383b565b604082019050919050565b600060208201905081810360008301526138c68161388a565b9050919050565b7f45524332303a207472616e7366657220616d6f756e742065786365656473206260008201527f616c616e63650000000000000000000000000000000000000000000000000000602082015250565b60006139296026836128a2565b9150613934826138cd565b604082019050919050565b600060208201905081810360008301526139588161391c565b9050919050565b7f4f776e61626c653a2063616c6c6572206973206e6f7420746865206f776e6572600082015250565b60006139956020836128a2565b91506139a08261395f565b602082019050919050565b600060208201905081810360008301526139c481613988565b9050919050565b60006040820190506139e06000830185612a58565b6139ed6020830184612a58565b9392505050565b600060a082019050613a096000830188612b16565b613a166020830187612b16565b613a236040830186612b16565b613a306060830185612a58565b613a3d6080830184612bec565b9695505050505050565b7f4e487b7100000000000000000000000000000000000000000000000000000000600052601260045260246000fd5b6000613a81826129ac565b9150613a8c836129ac565b925082613a9c57613a9b613a47565b5b828204905092915050565b600081905092915050565b7f1901000000000000000000000000000000000000000000000000000000000000600082015250565b6000613ae8600283613aa7565b9150613af382613ab2565b600282019050919050565b6000819050919050565b613b19613b1482612b0c565b613afe565b82525050565b6000613b2a82613adb565b9150613b368285613b08565b602082019150613b468284613b08565b6020820191508190509392505050565b6000608082019050613b6b6000830187612b16565b613b786020830186612ae2565b613b856040830185612b16565b613b926060830184612b16565b95945050505050565b7f4e487b7100000000000000000000000000000000000000000000000000000000600052602160045260246000fd5b7f45434453413a20696e76616c6964207369676e61747572650000000000000000600082015250565b6000613c006018836128a2565b9150613c0b82613bca565b602082019050919050565b60006020820190508181036000830152613c2f81613bf3565b9050919050565b7f45434453413a20696e76616c6964207369676e6174757265206c656e67746800600082015250565b6000613c6c601f836128a2565b9150613c7782613c36565b602082019050919050565b60006020820190508181036000830152613c9b81613c5f565b9050919050565b7f45434453413a20696e76616c6964207369676e6174757265202773272076616c60008201527f7565000000000000000000000000000000000000000000000000000000000000602082015250565b6000613cfe6022836128a2565b9150613d0982613ca2565b604082019050919050565b60006020820190508181036000830152613d2d81613cf1565b9050919050565b7f45434453413a20696e76616c6964207369676e6174757265202776272076616c60008201527f7565000000000000000000000000000000000000000000000000000000000000602082015250565b6000613d906022836128a2565b9150613d9b82613d34565b604082019050919050565b60006020820190508181036000830152613dbf81613d83565b9050919050565b7f45524332303a206275726e2066726f6d20746865207a65726f2061646472657360008201527f7300000000000000000000000000000000000000000000000000000000000000602082015250565b6000613e226021836128a2565b9150613e2d82613dc6565b604082019050919050565b60006020820190508181036000830152613e5181613e15565b9050919050565b7f45524332303a206275726e20616d6f756e7420657863656564732062616c616e60008201527f6365000000000000000000000000000000000000000000000000000000000000602082015250565b6000613eb46022836128a2565b9150613ebf82613e58565b604082019050919050565b60006020820190508181036000830152613ee381613ea7565b905091905056fea2646970667358221220781b464754e509285375d41f5ee02386b8fe02f849ab3d26d54a7ee07e4e808d64736f6c63430008110033",
  "devdoc": {
    "kind": "dev",
    "methods": {
      "DOMAIN_SEPARATOR()": {
        "details": "See {IERC20Permit-DOMAIN_SEPARATOR}."
      },
      "allowance(address,address)": {
        "details": "See {IERC20-allowance}."
      },
      "approve(address,uint256)": {
        "details": "See {IERC20-approve}. NOTE: If `amount` is the maximum `uint256`, the allowance is not updated on `transferFrom`. This is semantically equivalent to an infinite approval. Requirements: - `spender` cannot be the zero address."
      },
      "balanceOf(address)": {
        "details": "See {IERC20-balanceOf}."
      },
      "burn(uint256)": {
        "details": "Destroys `amount` tokens from the caller. See {ERC20-_burn}."
      },
      "burnFrom(address,uint256)": {
        "details": "Destroys `amount` tokens from `account`, deducting from the caller's allowance. See {ERC20-_burn} and {ERC20-allowance}. Requirements: - the caller must have allowance for ``accounts``'s tokens of at least `amount`."
      },
      "checkpoints(address,uint32)": {
        "details": "Get the `pos`-th checkpoint for `account`."
      },
      "decimals()": {
        "details": "Returns the number of decimals used to get its user representation. For example, if `decimals` equals `2`, a balance of `505` tokens should be displayed to a user as `5.05` (`505 / 10 ** 2`). Tokens usually opt for a value of 18, imitating the relationship between Ether and Wei. This is the value {ERC20} uses, unless this function is overridden; NOTE: This information is only used for _display_ purposes: it in no way affects any of the arithmetic of the contract, including {IERC20-balanceOf} and {IERC20-transfer}."
      },
      "decreaseAllowance(address,uint256)": {
        "details": "Atomically decreases the allowance granted to `spender` by the caller. This is an alternative to {approve} that can be used as a mitigation for problems described in {IERC20-approve}. Emits an {Approval} event indicating the updated allowance. Requirements: - `spender` cannot be the zero address. - `spender` must have allowance for the caller of at least `subtractedValue`."
      },
      "delegate(address)": {
        "details": "Delegate votes from the sender to `delegatee`."
      },
      "delegateBySig(address,uint256,uint256,uint8,bytes32,bytes32)": {
        "details": "Delegates votes from signer to `delegatee`"
      },
      "delegates(address)": {
        "details": "Get the address `account` is currently delegating to."
      },
      "getPastTotalSupply(uint256)": {
        "details": "Retrieve the `totalSupply` at the end of `blockNumber`. Note, this value is the sum of all balances. It is but NOT the sum of all the delegated votes! Requirements: - `blockNumber` must have been already mined"
      },
      "getPastVotes(address,uint256)": {
        "details": "Retrieve the number of votes for `account` at the end of `blockNumber`. Requirements: - `blockNumber` must have been already mined"
      },
      "getVotes(address)": {
        "details": "Gets the current votes balance for `account`"
      },
      "increaseAllowance(address,uint256)": {
        "details": "Atomically increases the allowance granted to `spender` by the caller. This is an alternative to {approve} that can be used as a mitigation for problems described in {IERC20-approve}. Emits an {Approval} event indicating the updated allowance. Requirements: - `spender` cannot be the zero address."
      },
      "name()": {
        "details": "Returns the name of the token."
      },
      "nonces(address)": {
        "details": "See {IERC20Permit-nonces}."
      },
      "numCheckpoints(address)": {
        "details": "Get number of checkpoints for `account`."
      },
      "owner()": {
        "details": "Returns the address of the current owner."
      },
      "permit(address,address,uint256,uint256,uint8,bytes32,bytes32)": {
        "details": "See {IERC20Permit-permit}."
      },
      "renounceOwnership()": {
        "details": "Leaves the contract without owner. It will not be possible to call `onlyOwner` functions anymore. Can only be called by the current owner. NOTE: Renouncing ownership will leave the contract without an owner, thereby removing any functionality that is only available to the owner."
      },
      "symbol()": {
        "details": "Returns the symbol of the token, usually a shorter version of the name."
      },
      "totalSupply()": {
        "details": "See {IERC20-totalSupply}."
      },
      "transfer(address,uint256)": {
        "details": "See {IERC20-transfer}. Requirements: - `to` cannot be the zero address. - the caller must have a balance of at least `amount`."
      },
      "transferFrom(address,address,uint256)": {
        "details": "See {IERC20-transferFrom}. Emits an {Approval} event indicating the updated allowance. This is not required by the EIP. See the note at the beginning of {ERC20}. NOTE: Does not update the allowance if the current allowance is the maximum `uint256`. Requirements: - `from` and `to` cannot be the zero address. - `from` must have a balance of at least `amount`. - the caller must have allowance for ``from``'s tokens of at least `amount`."
      },
      "transferOwnership(address)": {
        "details": "Transfers ownership of the contract to a new account (`newOwner`). Can only be called by the current owner."
      }
    },
    "version": 1
  },
  "userdoc": {
    "kind": "user",
    "methods": {},
    "version": 1
  },
  "storageLayout": {
    "storage": [
      {
        "astId": 206,
        "contract": "contracts/GovernanceToken.sol:GovernanceToken",
        "label": "_balances",
        "offset": 0,
        "slot": "0",
        "type": "t_mapping(t_address,t_uint256)"
      },
      {
        "astId": 212,
        "contract": "contracts/GovernanceToken.sol:GovernanceToken",
        "label": "_allowances",
        "offset": 0,
        "slot": "1",
        "type": "t_mapping(t_address,t_mapping(t_address,t_uint256))"
      },
      {
        "astId": 214,
        "contract": "contracts/GovernanceToken.sol:GovernanceToken",
        "label": "_totalSupply",
        "offset": 0,
        "slot": "2",
        "type": "t_uint256"
      },
      {
        "astId": 216,
        "contract": "contracts/GovernanceToken.sol:GovernanceToken",
        "label": "_name",
        "offset": 0,
        "slot": "3",
        "type": "t_string_storage"
      },
      {
        "astId": 218,
        "contract": "contracts/GovernanceToken.sol:GovernanceToken",
        "label": "_symbol",
        "offset": 0,
        "slot": "4",
        "type": "t_string_storage"
      },
      {
        "astId": 7,
        "contract": "contracts/GovernanceToken.sol:GovernanceToken",
        "label": "_owner",
        "offset": 0,
        "slot": "5",
        "type": "t_address"
      },
      {
        "astId": 1583,
        "contract": "contracts/GovernanceToken.sol:GovernanceToken",
        "label": "_nonces",
        "offset": 0,
        "slot": "6",
        "type": "t_mapping(t_address,t_struct(Counter)1796_storage)"
      },
      {
        "astId": 1591,
        "contract": "contracts/GovernanceToken.sol:GovernanceToken",
        "label": "_PERMIT_TYPEHASH_DEPRECATED_SLOT",
        "offset": 0,
        "slot": "7",
        "type": "t_bytes32"
      },
      {
        "astId": 924,
        "contract": "contracts/GovernanceToken.sol:GovernanceToken",
        "label": "_delegates",
        "offset": 0,
        "slot": "8",
        "type": "t_mapping(t_address,t_address)"
      },
      {
        "astId": 930,
        "contract": "contracts/GovernanceToken.sol:GovernanceToken",
        "label": "_checkpoints",
        "offset": 0,
        "slot": "9",
        "type": "t_mapping(t_address,t_array(t_struct(Checkpoint)915_storage)dyn_storage)"
      },
      {
        "astId": 934,
        "contract": "contracts/GovernanceToken.sol:GovernanceToken",
        "label": "_totalSupplyCheckpoints",
        "offset": 0,
        "slot": "10",
        "type": "t_array(t_struct(Checkpoint)915_storage)dyn_storage"
      },
      {
        "astId": 5007,
        "contract": "contracts/GovernanceToken.sol:GovernanceToken",
        "label": "s_maxSupply",
        "offset": 0,
        "slot": "11",
        "type": "t_uint256"
      }
    ],
    "types": {
      "t_address": {
        "encoding": "inplace",
        "label": "address",
        "numberOfBytes": "20"
      },
      "t_array(t_struct(Checkpoint)915_storage)dyn_storage": {
        "base": "t_struct(Checkpoint)915_storage",
        "encoding": "dynamic_array",
        "label": "struct ERC20Votes.Checkpoint[]",
        "numberOfBytes": "32"
      },
      "t_bytes32": {
        "encoding": "inplace",
        "label": "bytes32",
        "numberOfBytes": "32"
      },
      "t_mapping(t_address,t_address)": {
        "encoding": "mapping",
        "key": "t_address",
        "label": "mapping(address => address)",
        "numberOfBytes": "32",
        "value": "t_address"
      },
      "t_mapping(t_address,t_array(t_struct(Checkpoint)915_storage)dyn_storage)": {
        "encoding": "mapping",
        "key": "t_address",
        "label": "mapping(address => struct ERC20Votes.Checkpoint[])",
        "numberOfBytes": "32",
        "value": "t_array(t_struct(Checkpoint)915_storage)dyn_storage"
      },
      "t_mapping(t_address,t_mapping(t_address,t_uint256))": {
        "encoding": "mapping",
        "key": "t_address",
        "label": "mapping(address => mapping(address => uint256))",
        "numberOfBytes": "32",
        "value": "t_mapping(t_address,t_uint256)"
      },
      "t_mapping(t_address,t_struct(Counter)1796_storage)": {
        "encoding": "mapping",
        "key": "t_address",
        "label": "mapping(address => struct Counters.Counter)",
        "numberOfBytes": "32",
        "value": "t_struct(Counter)1796_storage"
      },
      "t_mapping(t_address,t_uint256)": {
        "encoding": "mapping",
        "key": "t_address",
        "label": "mapping(address => uint256)",
        "numberOfBytes": "32",
        "value": "t_uint256"
      },
      "t_string_storage": {
        "encoding": "bytes",
        "label": "string",
        "numberOfBytes": "32"
      },
      "t_struct(Checkpoint)915_storage": {
        "encoding": "inplace",
        "label": "struct ERC20Votes.Checkpoint",
        "members": [
          {
            "astId": 912,
            "contract": "contracts/GovernanceToken.sol:GovernanceToken",
            "label": "fromBlock",
            "offset": 0,
            "slot": "0",
            "type": "t_uint32"
          },
          {
            "astId": 914,
            "contract": "contracts/GovernanceToken.sol:GovernanceToken",
            "label": "votes",
            "offset": 4,
            "slot": "0",
            "type": "t_uint224"
          }
        ],
        "numberOfBytes": "32"
      },
      "t_struct(Counter)1796_storage": {
        "encoding": "inplace",
        "label": "struct Counters.Counter",
        "members": [
          {
            "astId": 1795,
            "contract": "contracts/GovernanceToken.sol:GovernanceToken",
            "label": "_value",
            "offset": 0,
            "slot": "0",
            "type": "t_uint256"
          }
        ],
        "numberOfBytes": "32"
      },
      "t_uint224": {
        "encoding": "inplace",
        "label": "uint224",
        "numberOfBytes": "28"
      },
      "t_uint256": {
        "encoding": "inplace",
        "label": "uint256",
        "numberOfBytes": "32"
      },
      "t_uint32": {
        "encoding": "inplace",
        "label": "uint32",
        "numberOfBytes": "4"
      }
    }
  }
}