{
  "address": "0xf4De93929cE1FFaB88b2d537FcE763b5ced725f2",
  "abi": [
    {
      "inputs": [],
      "name": "checkIfFundingCompletedOrExpired",
      "outputs": [],
      "stateMutability": "nonpayable",
      "type": "function"
    },
    {
      "inputs": [
        {
          "internalType": "address",
          "name": "owner",
          "type": "address"
        },
        {
          "internalType": "address",
          "name": "token",
          "type": "address"
        },
        {
          "internalType": "uint256",
          "name": "id",
          "type": "uint256"
        },
        {
          "internalType": "uint256",
          "name": "tokenToIssue",
          "type": "uint256"
        },
        {
          "internalType": "string",
          "name": "title",
          "type": "string"
        },
        {
          "internalType": "string",
          "name": "description",
          "type": "string"
        },
        {
          "internalType": "uint256",
          "name": "fundRaisingDeadline",
          "type": "uint256"
        },
        {
          "internalType": "uint256",
          "name": "fundingNeeded",
          "type": "uint256"
        }
      ],
      "stateMutability": "nonpayable",
      "type": "constructor"
    },
    {
      "inputs": [],
      "name": "Project__CreatorCannotFundHisProject",
      "type": "error"
    },
    {
      "inputs": [],
      "name": "Project__FailedToSendFunds",
      "type": "error"
    },
    {
      "inputs": [],
      "name": "Project__FundingNotExpired",
      "type": "error"
    },
    {
      "inputs": [],
      "name": "Project__FundsNotGiven",
      "type": "error"
    },
    {
      "inputs": [],
      "name": "Project__IncorrectState",
      "type": "error"
    },
    {
      "anonymous": false,
      "inputs": [
        {
          "indexed": true,
          "internalType": "address",
          "name": "to",
          "type": "address"
        },
        {
          "indexed": false,
          "internalType": "uint256",
          "name": "amount",
          "type": "uint256"
        }
      ],
      "name": "AmountRefunded",
      "type": "event"
    },
    {
      "inputs": [],
      "name": "claimTokens",
      "outputs": [
        {
          "internalType": "bool",
          "name": "",
          "type": "bool"
        }
      ],
      "stateMutability": "nonpayable",
      "type": "function"
    },
    {
      "anonymous": false,
      "inputs": [
        {
          "indexed": true,
          "internalType": "address",
          "name": "to",
          "type": "address"
        },
        {
          "indexed": false,
          "internalType": "uint256",
          "name": "amount",
          "type": "uint256"
        }
      ],
      "name": "ClaimTokens",
      "type": "event"
    },
    {
      "inputs": [],
      "name": "contribute",
      "outputs": [],
      "stateMutability": "payable",
      "type": "function"
    },
    {
      "anonymous": false,
      "inputs": [
        {
          "indexed": true,
          "internalType": "uint256",
          "name": "projectId",
          "type": "uint256"
        },
        {
          "indexed": true,
          "internalType": "address",
          "name": "projectToken",
          "type": "address"
        },
        {
          "indexed": false,
          "internalType": "uint256",
          "name": "round",
          "type": "uint256"
        }
      ],
      "name": "FundingExpired",
      "type": "event"
    },
    {
      "anonymous": false,
      "inputs": [
        {
          "indexed": true,
          "internalType": "uint256",
          "name": "projectId",
          "type": "uint256"
        },
        {
          "indexed": true,
          "internalType": "address",
          "name": "projectToken",
          "type": "address"
        },
        {
          "indexed": false,
          "internalType": "uint256",
          "name": "round",
          "type": "uint256"
        },
        {
          "indexed": false,
          "internalType": "uint256",
          "name": "goalAmount",
          "type": "uint256"
        },
        {
          "indexed": false,
          "internalType": "uint256",
          "name": "fundRaisingDeadline",
          "type": "uint256"
        }
      ],
      "name": "FundingInitiated",
      "type": "event"
    },
    {
      "anonymous": false,
      "inputs": [
        {
          "indexed": true,
          "internalType": "uint256",
          "name": "projectId",
          "type": "uint256"
        },
        {
          "indexed": true,
          "internalType": "address",
          "name": "projectToken",
          "type": "address"
        },
        {
          "indexed": false,
          "internalType": "uint256",
          "name": "round",
          "type": "uint256"
        }
      ],
      "name": "FundingSuccess",
      "type": "event"
    },
    {
      "anonymous": false,
      "inputs": [
        {
          "indexed": true,
          "internalType": "address",
          "name": "sender",
          "type": "address"
        },
        {
          "indexed": true,
          "internalType": "address",
          "name": "contractAddress",
          "type": "address"
        },
        {
          "indexed": false,
          "internalType": "uint256",
          "name": "amount",
          "type": "uint256"
        }
      ],
      "name": "FundsContributed",
      "type": "event"
    },
    {
      "inputs": [],
      "name": "getRefund",
      "outputs": [
        {
          "internalType": "bool",
          "name": "",
          "type": "bool"
        }
      ],
      "stateMutability": "nonpayable",
      "type": "function"
    },
    {
      "inputs": [
        {
          "internalType": "uint256",
          "name": "amountToRaise",
          "type": "uint256"
        },
        {
          "internalType": "uint256",
          "name": "tokenToIssue",
          "type": "uint256"
        },
        {
          "internalType": "uint256",
          "name": "fundRaisingDeadline",
          "type": "uint256"
        }
      ],
      "name": "initiateFundingRound",
      "outputs": [],
      "stateMutability": "nonpayable",
      "type": "function"
    },
    {
      "anonymous": false,
      "inputs": [
        {
          "indexed": true,
          "internalType": "address",
          "name": "previousOwner",
          "type": "address"
        },
        {
          "indexed": true,
          "internalType": "address",
          "name": "newOwner",
          "type": "address"
        }
      ],
      "name": "OwnershipTransferred",
      "type": "event"
    },
    {
      "inputs": [],
      "name": "payOut",
      "outputs": [
        {
          "internalType": "bool",
          "name": "",
          "type": "bool"
        }
      ],
      "stateMutability": "nonpayable",
      "type": "function"
    },
    {
      "anonymous": false,
      "inputs": [
        {
          "indexed": true,
          "internalType": "uint256",
          "name": "id",
          "type": "uint256"
        },
        {
          "indexed": false,
          "internalType": "address",
          "name": "project_address",
          "type": "address"
        }
      ],
      "name": "ProjectStart",
      "type": "event"
    },
    {
      "inputs": [],
      "name": "renounceOwnership",
      "outputs": [],
      "stateMutability": "nonpayable",
      "type": "function"
    },
    {
      "inputs": [
        {
          "internalType": "address",
          "name": "newOwner",
          "type": "address"
        }
      ],
      "name": "transferOwnership",
      "outputs": [],
      "stateMutability": "nonpayable",
      "type": "function"
    },
    {
      "inputs": [
        {
          "internalType": "address",
          "name": "",
          "type": "address"
        }
      ],
      "name": "contributedFunds",
      "outputs": [
        {
          "internalType": "uint256",
          "name": "",
          "type": "uint256"
        }
      ],
      "stateMutability": "view",
      "type": "function"
    },
    {
      "inputs": [],
      "name": "getDetails",
      "outputs": [
        {
          "internalType": "address payable",
          "name": "projectStarter",
          "type": "address"
        },
        {
          "internalType": "string",
          "name": "projectTitle",
          "type": "string"
        },
        {
          "internalType": "string",
          "name": "projectDescription",
          "type": "string"
        },
        {
          "internalType": "uint256",
          "name": "projectId",
          "type": "uint256"
        },
        {
          "internalType": "uint256",
          "name": "amountToRaise",
          "type": "uint256"
        },
        {
          "internalType": "uint256",
          "name": "deadline",
          "type": "uint256"
        },
        {
          "internalType": "uint256",
          "name": "amountRaised",
          "type": "uint256"
        },
        {
          "internalType": "uint256",
          "name": "fundingRound",
          "type": "uint256"
        },
        {
          "internalType": "enum Project.State",
          "name": "currentState",
          "type": "uint8"
        }
      ],
      "stateMutability": "view",
      "type": "function"
    },
    {
      "inputs": [],
      "name": "getState",
      "outputs": [
        {
          "internalType": "enum Project.State",
          "name": "",
          "type": "uint8"
        }
      ],
      "stateMutability": "view",
      "type": "function"
    },
    {
      "inputs": [],
      "name": "owner",
      "outputs": [
        {
          "internalType": "address",
          "name": "",
          "type": "address"
        }
      ],
      "stateMutability": "view",
      "type": "function"
    }
  ],
  "transactionHash": "0x69b32718572ccac17f069f66f129c11f534835859818644e757e54c4d2a3fcb8",
  "args": [
    "0xf821D3365814a704e59D7165B3D4CCAa3dF65Ba7",
    "0",
    "100000",
    "VCDao",
    "Decentralized Investment platform",
    "1"
  ],
  "numDeployments": 1,
  "solcInputHash": "704da8805b139322d9ad03719e182982",
  "bytecode": "0x60e06040526005805460ff191660031790553480156200001e57600080fd5b506040516200149238038062001492833981016040819052620000419162000289565b6200004c3362000174565b336080526001600160a01b03861660a05260016200006b8482620003bf565b5060c085905260026200007f8382620003bf565b506200008d816018620004a1565b6200009b90610e10620004a1565b620000a79042620004c1565b60008080527fec8156718a8372b1db44bb411437d0870f3e3790d4a08526d024ce1b0b668f6b919091556005805460ff1916905560038190557f6d5257204ebe7d88fd91ae87941cb2dd9d8062b64ae5a2bd2d28ec40b9fbf6df8590556008602090815260647f5eff886ea0ce6ca488a3d6e336d6c0f75f46d19b42c06ce5ee98e42c96d256c75560049190915560405130815286917f3c831dcf6fd0b80fe93c3ee5d9557ada5a592ba10c1dbe75b71be141107d60a5910160405180910390a2505050505050620004d7565b600080546001600160a01b038381166001600160a01b0319831681178455604051919092169283917f8be0079c531659141344cd1fd0a4f28419497f9722a3daafe3b4186f6b6457e09190a35050565b634e487b7160e01b600052604160045260246000fd5b600082601f830112620001ec57600080fd5b81516001600160401b0380821115620002095762000209620001c4565b604051601f8301601f19908116603f01168101908282118183101715620002345762000234620001c4565b816040528381526020925086838588010111156200025157600080fd5b600091505b8382101562000275578582018301518183018401529082019062000256565b600093810190920192909252949350505050565b60008060008060008060c08789031215620002a357600080fd5b86516001600160a01b0381168114620002bb57600080fd5b6020880151604089015160608a015192985090965094506001600160401b0380821115620002e857600080fd5b620002f68a838b01620001da565b945060808901519150808211156200030d57600080fd5b506200031c89828a01620001da565b92505060a087015190509295509295509295565b600181811c908216806200034557607f821691505b6020821081036200036657634e487b7160e01b600052602260045260246000fd5b50919050565b601f821115620003ba57600081815260208120601f850160051c81016020861015620003955750805b601f850160051c820191505b81811015620003b657828155600101620003a1565b5050505b505050565b81516001600160401b03811115620003db57620003db620001c4565b620003f381620003ec845462000330565b846200036c565b602080601f8311600181146200042b5760008415620004125750858301515b600019600386901b1c1916600185901b178555620003b6565b600085815260208120601f198616915b828110156200045c578886015182559484019460019091019084016200043b565b50858210156200047b5787850151600019600388901b60f8161c191681555b5050505050600190811b01905550565b634e487b7160e01b600052601160045260246000fd5b8082028115828204841417620004bb57620004bb6200048b565b92915050565b80820180821115620004bb57620004bb6200048b565b60805160a05160c051610f536200053f600039600081816102d5015281816106d30152818161077f0152610bb00152600081816102aa01528181610423015281816106b0015261075c01526000818161081e015281816108fa0152610a730152610f536000f3fe6080604052600436106100bc5760003560e01c8063b2d5ae4411610074578063d7bb99ba1161004e578063d7bb99ba146101ad578063f2fde38b146101b5578063fbbf93a0146101d557600080fd5b8063b2d5ae441461016e578063bd96fae714610183578063c20524031461019857600080fd5b806348c54b9d116100a557806348c54b9d1461010c578063715018a6146101315780638da5cb5b1461014657600080fd5b80631865c57d146100c157806319aea115146100ea575b600080fd5b3480156100cd57600080fd5b5060055460ff166040516100e19190610d22565b60405180910390f35b3480156100f657600080fd5b5061010a610105366004610d36565b6101ff565b005b34801561011857600080fd5b50610121610328565b60405190151581526020016100e1565b34801561013d57600080fd5b5061010a6104cf565b34801561015257600080fd5b506000546040516001600160a01b0390911681526020016100e1565b34801561017a57600080fd5b506101216104e3565b34801561018f57600080fd5b5061010a610676565b3480156101a457600080fd5b506101216107c9565b61010a6108b8565b3480156101c157600080fd5b5061010a6101d0366004610d62565b6109d1565b3480156101e157600080fd5b506101ea610a63565b6040516100e199989796959493929190610dd8565b610207610c28565b60038060055460ff16600381111561022157610221610cea565b1461023f5760405163f383ec1960e01b815260040160405180910390fd5b6001600360008282546102529190610e62565b909155505060038054600090815260086020908152604080832088905583548352600782528083208790558354835260098252918290208590556005805460ff191690559154815190815291820186905281018390527f00000000000000000000000000000000000000000000000000000000000000006001600160a01b0316907f0000000000000000000000000000000000000000000000000000000000000000907f753b8d108e14f127257005d564a8287f99943fc30306134452cf4cad0bb5dcb39060600160405180910390a350505050565b600060018060055460ff16600381111561034457610344610cea565b146103625760405163f383ec1960e01b815260040160405180910390fd5b33600090815260066020526040812054900361039157604051632a022d0f60e11b815260040160405180910390fd5b600354600090815260076020908152604080832054600883528184205433855260069093529083205490916103c591610e75565b6103cf9190610e97565b3360008181526006602052604080822091909155517fa9059cbb0000000000000000000000000000000000000000000000000000000081526004810191909152602481018290529091506001600160a01b037f0000000000000000000000000000000000000000000000000000000000000000169063a9059cbb906044016020604051808303816000875af115801561046c573d6000803e3d6000fd5b505050506040513d601f19601f820116820180604052508101906104909190610eae565b5060405181815233907f4d7f917f6b905f28ba5297e6c224a6cfec20ac6a3698a55b412d30b95ad25d2f9060200160405180910390a260019250505090565b6104d7610c28565b6104e16000610c82565b565b600060028060055460ff1660038111156104ff576104ff610cea565b1461051d5760405163f383ec1960e01b815260040160405180910390fd5b600354600090815260096020526040902054421015610568576040517f9af5028d00000000000000000000000000000000000000000000000000000000815260040160405180910390fd5b33600090815260066020526040812054900361059757604051632a022d0f60e11b815260040160405180910390fd5b3360008181526006602052604080822054905190929083908381818185875af1925050503d80600081146105e7576040519150601f19603f3d011682016040523d82523d6000602084013e6105ec565b606091505b505090508061060e5760405163f68aaf4160e01b815260040160405180910390fd5b33600090815260066020526040812081905560048054849290610632908490610ed0565b909155505060405182815233907f7ab855409e27a3b361adc9ebbc0750f5efb6d4594be28fef73c314d86d13a7f79060200160405180910390a26001935050505090565b60035460009081526008602052604090205460045410610723576005805460ff191660011790556003546040519081526001600160a01b037f000000000000000000000000000000000000000000000000000000000000000016907f0000000000000000000000000000000000000000000000000000000000000000907fa39ae0d7691252825674f6236b141740ed91074f3d797e104266d0b51ff18a68906020015b60405180910390a3565b6003546000908152600960205260409020544211156104e1576005805460ff191660021790556003546040519081526001600160a01b037f000000000000000000000000000000000000000000000000000000000000000016907f0000000000000000000000000000000000000000000000000000000000000000907fbc000f0d278d68c57829609b564a0212ef66a6062eb8ed49f97960744f8f214790602001610719565b60006107d3610c28565b60018060055460ff1660038111156107ed576107ed610cea565b1461080b5760405163f383ec1960e01b815260040160405180910390fd5b6004546040516000916001600160a01b037f000000000000000000000000000000000000000000000000000000000000000016918381818185875af1925050503d8060008114610877576040519150601f19603f3d011682016040523d82523d6000602084013e61087c565b606091505b505090508061089e5760405163f68aaf4160e01b815260040160405180910390fd5b50506000600455506005805460ff19166003179055600190565b60008060055460ff1660038111156108d2576108d2610cea565b146108f05760405163f383ec1960e01b815260040160405180910390fd5b6001600160a01b037f0000000000000000000000000000000000000000000000000000000000000000163303610952576040517fd39b9cf600000000000000000000000000000000000000000000000000000000815260040160405180910390fd5b3360009081526006602052604081208054349290610971908490610e62565b92505081905550346004600082825461098a9190610e62565b9091555050604051348152309033907f37be9bdbd3d0fa9f42e06daf81145e35769daee2a65754d3986d0daf9899a7d69060200160405180910390a36109ce610676565b50565b6109d9610c28565b6001600160a01b038116610a5a5760405162461bcd60e51b815260206004820152602660248201527f4f776e61626c653a206e6577206f776e657220697320746865207a65726f206160448201527f646472657373000000000000000000000000000000000000000000000000000060648201526084015b60405180910390fd5b6109ce81610c82565b60006060806000806000806000807f0000000000000000000000000000000000000000000000000000000000000000985060018054610aa190610ee3565b80601f0160208091040260200160405190810160405280929190818152602001828054610acd90610ee3565b8015610b1a5780601f10610aef57610100808354040283529160200191610b1a565b820191906000526020600020905b815481529060010190602001808311610afd57829003601f168201915b5050505050975060028054610b2e90610ee3565b80601f0160208091040260200160405190810160405280929190818152602001828054610b5a90610ee3565b8015610ba75780601f10610b7c57610100808354040283529160200191610ba7565b820191906000526020600020905b815481529060010190602001808311610b8a57829003601f168201915b505050505096507f0000000000000000000000000000000000000000000000000000000000000000955060086000600354815260200190815260200160002054945060096000600354815260200190815260200160002054935060045492506003549150600560009054906101000a900460ff169050909192939495969798565b6000546001600160a01b031633146104e15760405162461bcd60e51b815260206004820181905260248201527f4f776e61626c653a2063616c6c6572206973206e6f7420746865206f776e65726044820152606401610a51565b600080546001600160a01b038381167fffffffffffffffffffffffff0000000000000000000000000000000000000000831681178455604051919092169283917f8be0079c531659141344cd1fd0a4f28419497f9722a3daafe3b4186f6b6457e09190a35050565b634e487b7160e01b600052602160045260246000fd5b60048110610d1e57634e487b7160e01b600052602160045260246000fd5b9052565b60208101610d308284610d00565b92915050565b600080600060608486031215610d4b57600080fd5b505081359360208301359350604090920135919050565b600060208284031215610d7457600080fd5b81356001600160a01b0381168114610d8b57600080fd5b9392505050565b6000815180845260005b81811015610db857602081850181015186830182015201610d9c565b506000602082860101526020601f19601f83011685010191505092915050565b60006101206001600160a01b038c168352806020840152610dfb8184018c610d92565b90508281036040840152610e0f818b610d92565b9150508760608301528660808301528560a08301528460c08301528360e0830152610e3e610100830184610d00565b9a9950505050505050505050565b634e487b7160e01b600052601160045260246000fd5b80820180821115610d3057610d30610e4c565b600082610e9257634e487b7160e01b600052601260045260246000fd5b500490565b8082028115828204841417610d3057610d30610e4c565b600060208284031215610ec057600080fd5b81518015158114610d8b57600080fd5b81810381811115610d3057610d30610e4c565b600181811c90821680610ef757607f821691505b602082108103610f1757634e487b7160e01b600052602260045260246000fd5b5091905056fea2646970667358221220f4af7d225085a96401e229cd0f6250a420c43facd48cc3b00378dbbd81c7135264736f6c63430008110033",
  "devdoc": {
    "kind": "dev",
    "methods": {
      "claimTokens()": {
        "details": "investor recieves a proportion of Project's tokens based on amount funded"
      },
      "contribute()": {
        "details": "gather funds to meet the goal before deadline. Creator is not allowed to fund his project. For intial rounds, funders can only give a certain max amount which would be change to any amount after certain number of rounds"
      },
      "initiateFundingRound(uint256,uint256,uint256)": {
        "details": "start successive funding rounds after majority funders agree to it"
      },
      "owner()": {
        "details": "Returns the address of the current owner."
      },
      "renounceOwnership()": {
        "details": "Leaves the contract without owner. It will not be possible to call `onlyOwner` functions anymore. Can only be called by the current owner. NOTE: Renouncing ownership will leave the contract without an owner, thereby removing any functionality that is only available to the owner."
      },
      "transferOwnership(address)": {
        "details": "Transfers ownership of the contract to a new account (`newOwner`). Can only be called by the current owner."
      }
    },
    "version": 1
  },
  "userdoc": {
    "kind": "user",
    "methods": {
      "claimTokens()": {
        "notice": "assume the Project token is already deployed SUGGESTION: We can mint the relevant project tokens here and issue it to investor"
      }
    },
    "version": 1
  },
  "storageLayout": {
    "storage": [
      {
        "astId": 7,
        "contract": "contracts/Project.sol:Project",
        "label": "_owner",
        "offset": 0,
        "slot": "0",
        "type": "t_address"
      },
      {
        "astId": 864,
        "contract": "contracts/Project.sol:Project",
        "label": "s_title",
        "offset": 0,
        "slot": "1",
        "type": "t_string_storage"
      },
      {
        "astId": 866,
        "contract": "contracts/Project.sol:Project",
        "label": "s_description",
        "offset": 0,
        "slot": "2",
        "type": "t_string_storage"
      },
      {
        "astId": 868,
        "contract": "contracts/Project.sol:Project",
        "label": "s_fundingRound",
        "offset": 0,
        "slot": "3",
        "type": "t_uint256"
      },
      {
        "astId": 870,
        "contract": "contracts/Project.sol:Project",
        "label": "s_currentBalance",
        "offset": 0,
        "slot": "4",
        "type": "t_uint256"
      },
      {
        "astId": 875,
        "contract": "contracts/Project.sol:Project",
        "label": "s_state",
        "offset": 0,
        "slot": "5",
        "type": "t_enum(State)850"
      },
      {
        "astId": 879,
        "contract": "contracts/Project.sol:Project",
        "label": "contributedFunds",
        "offset": 0,
        "slot": "6",
        "type": "t_mapping(t_address,t_uint256)"
      },
      {
        "astId": 883,
        "contract": "contracts/Project.sol:Project",
        "label": "tokensToIssue",
        "offset": 0,
        "slot": "7",
        "type": "t_mapping(t_uint256,t_uint256)"
      },
      {
        "astId": 887,
        "contract": "contracts/Project.sol:Project",
        "label": "goalAmount",
        "offset": 0,
        "slot": "8",
        "type": "t_mapping(t_uint256,t_uint256)"
      },
      {
        "astId": 891,
        "contract": "contracts/Project.sol:Project",
        "label": "raiseBy",
        "offset": 0,
        "slot": "9",
        "type": "t_mapping(t_uint256,t_uint256)"
      }
    ],
    "types": {
      "t_address": {
        "encoding": "inplace",
        "label": "address",
        "numberOfBytes": "20"
      },
      "t_enum(State)850": {
        "encoding": "inplace",
        "label": "enum Project.State",
        "numberOfBytes": "1"
      },
      "t_mapping(t_address,t_uint256)": {
        "encoding": "mapping",
        "key": "t_address",
        "label": "mapping(address => uint256)",
        "numberOfBytes": "32",
        "value": "t_uint256"
      },
      "t_mapping(t_uint256,t_uint256)": {
        "encoding": "mapping",
        "key": "t_uint256",
        "label": "mapping(uint256 => uint256)",
        "numberOfBytes": "32",
        "value": "t_uint256"
      },
      "t_string_storage": {
        "encoding": "bytes",
        "label": "string",
        "numberOfBytes": "32"
      },
      "t_uint256": {
        "encoding": "inplace",
        "label": "uint256",
        "numberOfBytes": "32"
      }
    }
  }
}